S00A00005A5A2E7372656366
S113000095C00000C4C00000C2C00000C0C0000011
S1130010BEC00000BCC00000BAC00000B8C00000F0
S1130020B6C00000B4C00000B2C00000B0C0000000
S1130030DDC30000ACC00000AAC00000A8C00000DE
S1130040A6C00000A4C00000A2C00000A0C0000020
S11300509EC000000C9432139AC0000098C00000A7
S113006096C0000094C0000092C0000090C0000040
S11300708EC000008CC000008AC0000088C0000050
S113008086C0000084C0000082C0000080C0000060
S11300907EC000007CC000007AC0000078C0000070
S11300A076C0000074C0000072C0000070C0000080
S11300B06EC000006CC000006AC0000068C0000090
S11300C066C0000064C0000062C0000060C00000A0
S11300D05EC000005CC000005AC0000058C00000B0
S11300E056C00000871287128712AE12B612C412CD
S11300F087128712AE12B6120E94BF088091B31203
S11301008230D0F3AED2F8CFCF93DF931F92CDB726
S1130110DEB7CE0101960E949C1069810E941712DD
S11301200E945912F6CF4619181B941C11241FBEA5
S1130130CFEFD1E2DEBFCDBF00E00CBF12E0A0E004
S1130140B2E0E8E3F3E400E00BBF02C007900D92D5
S1130150A236B107D9F723E1A2E6B2E001C01D92AD
S1130160A83BB207E1F710E0C6E9D0E000E006C022
S113017021970109802FFE010E943E20C339D10737
S113018080E00807A9F70E945A130C949A2138CFEB
S11301900F931F93FC018081811112C08091B013D1
S11301A09091B113A091B213B091B3138183928350
S11301B0A383B48381E0808360E070E0CB0112C04C
S11301C08091B0139091B113A091B213B091B31375
S11301D00181128123813481BC01CD01601B710B2B
S11301E0820B930B1F910F910895FC0110820895C7
S11301F0EEE6F2E0A2E7B2E0B183A08313821282BA
S1130200EEE6F2E1F0936D02E0936C021382128247
S1130210118210828CEF9FE013969C938E93129719
S1130220ED93FC93909369028093680290936B0220
S113023080936A0280E090E8909363028093620264
S11302400895CF93DF93EC01AEE6B2E001C0DF0185
S1130250ED91FC911197EC17FD07C8F312968D915F
S11302609C9113979D01280F391FC217D30749F496
S11302702A813B81820F931F13969C938E9312972E
S1130280ED018A819B819E01280F391FE217F30734
S1130290C1F420916C0230916D02E217F30771F002
S11302A022813381820F931F9B838A83ED91FC917A
S11302B01197808191819983888305C0398328832C
S11302C002C0F983E883CA17DB0711F0CD93DC93EE
S11302D0DF91CF910895EF92FF920F931F93CF93E5
S11302E0DF938C010E94D30A80916C0290916D027D
S11302F0892B09F47DDF809162029091630280234F
S11303009123892B09F076C00115110549F0C80124
S113031004960817190718F000E010E001C08C01DA
S11303200115110509F469C080916A0290916B026C
S11303308017910708F464C0C0916E02D0916F02D7
S1130340EEE6F2E002C0FE01EC018A819B81801797
S1130350910720F4888199810097A9F780916C0214
S113036090916D02C817D90709F44DC0E080F1805F
S113037084E0E80EF11C88819981918380832A812D
S11303803B81201B310B2930310548F0CE01800F11
S1130390911FFC01338322831B830A8352DF2A814A
S11303A03B8180916A0290916B02821B930B909324
S11303B06B0280936A02409168025091690284172B
S11303C0950720F4909369028093680280916202F9
S11303D090916302282B392B3B832A83198218823C
S11303E080916602909167020196909367028093D0
S11303F066020BC0E12CF12C08C0E12CF12C05C0E5
S1130400E12CF12C02C0E12CF12C0E94FC0BE11434
S1130410F10411F40E94F512C701DF91CF911F91ED
S11304200F91FF90EF9008950F931F93CF93DF9355
S1130430009791F1EC0124974A815B81209162023B
S113044030916302BA0162237323672B29F1688117
S11304507981672B09F520953095242335233B8337
S11304602A830E94D30A8A819B8120916A02309157
S11304706B02820F931F90936B0280936A02CE01EA
S1130480E0DE80916402909165020196909365028A
S1130490809364020E94FC0BDF91CF911F910F9116
S11304A00895FC010396928381832FEF3FEF3483F9
S11304B02383968385839087878310820895FC0124
S11304C0118610860895CF93DF939C01FB01DC0114
S11304D01196CD91DC911297D383C2838C819D8137
S11304E0958384838C819D81DC0113967C936E9328
S11304F012977D836C8331872087F90180818F5F18
S11305008083DF91CF910895CF93DF93EB014881EE
S113051059814F3F2FEF520721F4FC01A781B08589
S11305200DC0DC01139601C0DF011296ED91FC9120
S113053013972081318142175307B0F71296ED913A
S1130540FC911397FB83EA83D583C483BD83AC8377
S11305501396DC93CE93129799878887FC012081A8
S11305602F5F2083DF91CF910895CF93DF93FC0118
S1130570A085B185C281D381848195819D838C833B
S1130580C481D581828193819B838A8311968D91C5
S11305909C911297E817F90731F48481958112969A
S11305A09C938E931197118610868C9181508C9315
S11305B08C91DF91CF910895A89590EC88E10FB6C6
S11305C0F894A895809360000FBE909360000895FE
S11305D0FC016083319770833197108231971082C8
S11305E0319720E820833197108231971082319718
S11305F01082779740833197508386970895DCDF84
S1130600A091D712B091D812CD91CDBFDD91DEBFAC
S1130610FF91EF91DF91CF91BF91AF919F918F9116
S11306207F916F915F914F913F912F911F910F9106
S1130630FF90EF90DF90CF90BF90AF909F908F90FE
S11306407F906F905F904F903F902F901F900F90EE
S11306500CBE0F900BBE0F900FBE0F90089581E05B
S113066008950F920FB6F8940F920BB60F920CB632
S11306700F921F9211242F923F924F925F926F928A
S11306807F928F929F92AF92BF92CF92DF92EF921E
S1130690FF920F931F932F933F934F935F936F9307
S11306A07F938F939F93AF93BF93CF93DF93EF93F6
S11306B0FF93A091D712B091D8120DB60D920EB639
S11306C00D920E94E20CA091D712B091D812CD9154
S11306D0CDBFDD91DEBFFF91EF91DF91CF91BF914F
S11306E0AF919F918F917F916F915F914F913F91C6
S11306F02F911F910F91FF90EF90DF90CF90BF90BB
S1130700AF909F908F907F906F905F904F903F90AD
S11307102F901F900F900CBE0F900BBE0F900FBE2A
S11307200F9008950F920FB6F8940F920BB60F9294
S11307300CB60F921F9211242F923F924F925F9208
S11307406F927F928F929F92AF92BF92CF92DF92DD
S1130750EF92FF920F931F932F933F934F935F93C7
S11307606F937F938F939F93AF93BF93CF93DF93B5
S1130770EF93FF93A091D712B091D8120DB60D92BA
S11307800EB60D9213BE1FD781110E94E20CA091E8
S1130790D712B091D812CD91CDBFDD91DEBFFF91BC
S11307A0EF91DF91CF91BF91AF919F918F917F9105
S11307B06F915F914F913F912F911F910F91FF90F6
S11307C0EF90DF90CF90BF90AF909F908F907F90ED
S11307D06F905F904F903F902F901F900F900CBEA2
S11307E00F900BBE0F900FBE0F9008959BDF1895CE
S11307F0DC0151962C915197222341F05696ED91AC
S1130800FC915797908184E0891B089580E00895B6
S11308100FB6F8940F92FC01828D811102C081E021
S113082001C080E00F900FBE08950FB6F8940F92A8
S1130830FC01228D838D281302C081E001C080E079
S11308400F900FBE08950F931F93CF93DF93EC0186
S1130850042F1A8D4C8D41110CC088819981892BEC
S113086009F042C08C819D810E94B40F1D821C82BC
S113087042C0011117C050E08A819B810E948A21E5
S11308802C8D8A819B81820F911D9B838A832C816D
S11308903D818217930750F1888199819B838A83D4
S11308A080E029C050E08E819F810E948A218C8D36
S11308B090E09195819591092E813F81280F391FF0
S11308C03F832E83488159812417350730F42C81C6
S11308D03D81820F931F9F838E83023049F411233D
S11308E049F0115080E007C080E005C080E003C0FB
S11308F080E001C080E01F5F1A8FDF91CF911F91CC
S11309000F910895FC01448D4423A9F050E0268101
S11309103781240F351F37832683848195812817D7
S1130920390720F08081918197838683CB0166818A
S113093077810C948A2108951F93CF93DF93EC0160
S11309400FB6F8940F921E8D0BC08989882351F03D
S1130950CE0141960E94080E81110E940E0F115083
S113096011169CF38FEF8E8F0F900FBE0FB6F89475
S11309700F921D8D0BC08885882351F0CE010896F7
S11309800E94080E81110E940E0F115011169CF343
S11309908FEF8D8F0F900FBEDF91CF911F91089530
S11309A0CF93DF93EC010FB6F8940F92E881F981AD
S11309B08B8D2C8D90E030E0829FA001839F500DA1
S11309C0929F500D11244E0F5F1F5D834C831A8E2E
S11309D0FB83EA830197289FA001299F500D389F2C
S11309E0500D1124CF01840F951F9F838E838FEFA9
S11309F08D8F8E8F61110BC08885882371F0CE0195
S1130A0008960E94080E882341F02BDE06C0CE0112
S1130A10089647DDCE01419644DD0F900FBE81E07C
S1130A20DF91CF9108950F931F93F801611103C0D3
S1130A301183008302C051834083838F648F61E0FC
S1130A40CF01AEDF1F910F910895DF92EF92FF92D5
S1130A500F931F93CF93DF93F82EE62ED42E869F09
S1130A60C00111244F9637DCEC01009741F08C0152
S1130A702D2DAC01415E5F4F6E2D8F2DD4DFCE0145
S1130A80DF91CF911F910F91FF90EF90DF90089528
S1130A90CF92DF92EF92FF920F931F93CF93DF9346
S1130AA000D01F921F92CDB7DEB78C017B015D830E
S1130AB04C83C22ED12C0FB6F8940F92F801928D6C
S1130AC0838D981718F0F2E0CF1216C04C2DB701A1
S1130AD0C801B9DEF8019189992341F0C801419612
S1130AE00E94080E882321F0BCDD02C08111B9DD0B
S1130AF00F900FBE81E043C08C819D81892B21F42E
S1130B000F900FBE80E03BC0D11006C0CE0101960D
S1130B100E94C50EDD24D3940F900FBE44D50FB6AA
S1130B20F8940F92F801858D8F3F09F4158EF80122
S1130B30868D8F3F09F4168E0F900FBEBE016C5F39
S1130B407F4FCE0101960E94D00E811114C0C801BE
S1130B506CDE882361F06C817D81C8010896FFD723
S1130B60C801EADE49D68111A6CF7BDDA4CFC80136
S1130B70E3DE42D6A0CFC801DFDE3ED680E00F9090
S1130B800F900F900F900F90DF91CF911F910F91C5
S1130B90FF90EF90DF90CF900895009761F0FC01F3
S1130BA01582148211821082168220E040E050E007
S1130BB060E070E06DCF0895CF93DF93482F60E03D
S1130BC081E043DFEC01E9DFCE01DF91CF910895AD
S1130BD0EF92FF920F931F93CF93DF938A01FC014F
S1130BE0528D338D531710F02230F9F4422F7801CF
S1130BF0EC011E8D8A8DCE0126DE1F3F81F489898A
S1130C008823A9F0CE0141960E94080E882389F01A
S1130C10E114F10481F081E0F70180830DC0FF2429
S1130C20F394F10EFE8E81E007C080E005C081E000
S1130C3003C081E001C081E0DF91CF911F910F914A
S1130C40FF90EF900895CF92DF92EF92FF920F936F
S1130C501F93CF93DF9300D01F921F92CDB7DEB7BF
S1130C608C016B015D834C83E12C0FB6F8940F92D9
S1130C70F801F28CFF2091F0B601C80143DEFA942A
S1130C80F801F28E8085882329F0C8010896C0D720
S1130C908111E7DC0F900FBE81E048C08C819D81FB
S1130CA0892B21F40F900FBE80E040C0E11006C0F4
S1130CB0CE0101960E94C50EEE24E3940F900FBE60
S1130CC072D40FB6F8940F92F801858D8F3F09F412
S1130CD0158EF801868D8F3F09F4168E0F900FBE86
S1130CE0BE016C5F7F4FCE0101960E94D00E811130
S1130CF014C0C8018DDD882361F06C817D81C80139
S1130D0041962DD7C80118DE77D58111AECFA9DC65
S1130D10ACCFC80111DE70D5A8CFC8010DDE6CD5EB
S1130D20C80176DD882309F4A0CF80E00F900F90EE
S1130D300F900F900F90DF91CF911F910F91FF9023
S1130D40EF90DF90CF900895EF92FF920F931F934F
S1130D50CF93DF9300D01F921F92CDB7DEB78C01E3
S1130D607D836C83E12CF12C0FB6F8940F92F8017B
S1130D70828D8823C1F08150828F80819181892B5B
S1130D8029F40E948A10F80195838483F8018085F0
S1130D90882329F0C80108963BD7811162DC0F90A3
S1130DA00FBE81E066C08C819D81892B21F40F9058
S1130DB00FBE80E05EC0F11005C0CE010196E5D7FC
S1130DC0FF24F3940F900FBEEED30FB6F8940F9256
S1130DD0F801858D8F3F09F4158EF801868D8F3FBC
S1130DE009F4168E0F900FBEBE016C5F7F4FCE01CB
S1130DF00196D6D7811123C0C8010ADD8823D9F012
S1130E00F80180819181892B51F40FB6F8940F92E7
S1130E10848195810E94200FE82E0F900FBE6C8173
S1130E207D81C80141969BD6C80186DDE5D4811138
S1130E309BCF17DC99CFC8017FDDDED495CFC801E5
S1130E407BDDDAD4C801E4DC882309F48DCFEE20FD
S1130E5079F00FB6F8940F92C801CADC682FF80134
S1130E60848195810E9417100F900FBE80E001C00D
S1130E7080E00F900F900F900F900F90DF91CF9123
S1130E801F910F91FF90EF900895CF93DF93EC01A2
S1130E900FB6F8940F928D8D8F3F09F41D8E8E8DB1
S1130EA08F3F09F41E8E0F900FBE8A8D811103C0EF
S1130EB0CE01419665D6CE013FDDDF91CF910895F5
S1130EC0FC01228533852158324159F4FC0184897F
S1130ED09589F2E184399F0731F0892B31F080E064
S1130EE0089580E0089580E0089581E00895E091F8
S1130EF09F12F091A0128081811107C08FEF9FEFA4
S1130F0090937612809375120895E0919F12F09158
S1130F10A0120580F681E02D808191819093761254
S1130F20809375120895CF93DF93EC018F89988D88
S1130F307BDACE0179DADF91CF9108954F925F92F7
S1130F406F927F928F929F92AF92BF92CF92DF92D5
S1130F50EF92FF920F93CF93DF932C015B014A0131
S1130F603901E60165EA70E08F89988D0E9493212A
S1130F708F89988D21E0821A9108880E991EA114F8
S1130F80B10489F415C0822F90E0F501E80FF91F30
S1130F903081DE01A80FB91F59963C9380818823C4
S1130FA029F02F5F01C020E0283068F318A201C0A7
S1130FB0198E043008F003E00E8B09A31AA2CE01A7
S1130FC002967DDACE010C967ADAD987C88784E056
S1130FD090E0801B91099D878C87DB8BCA8B84E012
S1130FE0FE01B396DF011D928A95E9F71FA2A301C2
S1130FF0B201C401EDDA99838883E114F10419F094
S1131000F701D183C083DF91CF910F91FF90EF90CF
S1131010DF90CF90BF90AF909F908F907F906F9014
S11310205F904F900895CF93C0E00FC08C2F90E055
S11310309C01220F331F220F331F220F331F820FF5
S1131040931F8D549D4E2DDACF5FC43078F38AEA16
S113105092E127DA81EA92E124DA84E992E121DA61
S11310608BE892E11EDA81E892E11BDA8AEA92E1E6
S11310709093A01280939F1281EA92E190939E1222
S113108080939D12CF910895CF93DF93EC010FB617
S1131090F8940F92809180128F5F809380128091D8
S11310A0D7129091D812892B51F4D093D812C093AF
S11310B0D71280918012813091F4B5DF10C08091F5
S11310C07C1281110CC0E091D712F091D81296894C
S11310D08E89891720F0D093D812C093D7128091AB
S11310E077128F5F809377128E8990917D12981773
S11310F010F480937D1290E0FC01EE0FFF1FEE0FC1
S1131100FF1FEE0FFF1F8E0F9F1FFC01ED54FD4EBE
S11311100180F281E02DFD83EC83848195819F839E
S11311208E83A481B581CE01029613969C938E93EF
S1131130129795838483EE89F0E0CF01880F991F7D
S1131140880F991F880F991FE80FF91FED54FD4E62
S1131150FB87EA8780818F5F80830F900FBE809129
S11311607C12882349F0E091D712F091D812968925
S11311708E89981708F475DADF91CF910895CF938B
S1131180DF931AC00FB6F8940F92E0919012F09189
S11311909112C681D781CE010296E7D9809180123F
S11311A081508093801280918A12815080938A1298
S11311B00F900FBECE01B7DE80918A128111E2CF6B
S11311C0DF91CF910895FF920F931F93CF93DF93F5
S11311D0EC01F62E00917E1210917F128091D712AD
S11311E09091D8120296C1D9CF3F8FEFD807B1F5AD
S11311F0FF20A1F1E1E8F2E1A181B281C091D7120F
S1131200D091D812BD83AC83C091D712D091D8129B
S113121014968D919C9115979F838E831496CD91EE
S1131220DC9115978091D7129091D81202969B83E6
S11312308A838091D7129091D812029615969C9326
S11312408E931497A091D712B091D8121B96FC9349
S1131250EE931A9780818F5F80832DC0C00FD11FBA
S1131260E091D712F091D812D383C283C017D1076B
S113127060F46091D7127091D81280919D12909170
S11312809E126E5F7F4F40D916C06091D712709145
S1131290D81280919F129091A0126E5F7F4F34D923
S11312A08091751290917612C817D90720F4D093C3
S11312B07612C0937512DF91CF911F910F91FF9019
S11312C008952F923F924F925F926F927F928F92E6
S11312D09F92AF92BF92CF92DF92EF92FF920F93C1
S11312E0CF93DF933C011B014A012901CA010E94EB
S11312F06B016C01892B69F088E290E00E946B011C
S1131300EC01892B19F0D88ECF8A05C0C6018CD880
S113131002C0C0E0D0E0209761F0A12CB12C6E0196
S11313209201A401B101C30109DECE01ADDE81E069
S113133001C08FEFDF91CF910F91FF90EF90DF907D
S1131340CF90BF90AF909F908F907F906F905F9061
S11313504F903F902F9008950F931F93CF93DF9357
S1131360EC010FB6F8940F92892B21F4C091D71297
S1131370D091D8128E010E5F1F4FC801F6D88C8908
S11313809D89892B19F0CE010C96EFD880917712A4
S11313908F5F809377128091D7129091D812C817DB
S11313A0D90751F4B8018BE892E18DD880918A1263
S11313B08F5F80938A1208C080918012815080933D
S11313C08012CE01B0DD93DD0F900FBE80917C12B0
S11313D0882341F08091D7129091D812C817D90769
S11313E009F43FD9DF91CF911F910F910895209176
S11313F0D7123091D8128217930709F438C00FB668
S1131400F8940F92FC012285338540919F125091EC
S1131410A01260919D1270919E120F900FBE24171E
S1131420350739F12617370731F1F2E121383F0743
S1131430B1F4FC0124893589232B61F082E00895FD
S1131440FC01E20FF11D27FDFA9537A13130A9F017
S11314502F5F01C020E012169CF783E00895F2E1AB
S11314602B383F0761F0232B61F484E0089580E07A
S1131470089582E0089582E0089582E0089584E06A
S1131480089581E008950F931F93CF93DF932091E4
S1131490D7123091D8128217930709F452C00097DB
S11314A009F44FC0EC010FB6F8940F9209DD8823BC
S11314B009F445C08E010E5F1F4FC80156D88E89AE
S11314C090917D12981710F480937D1290E0FC01A6
S11314D0EE0FFF1FEE0FFF1FEE0FFF1F8E0F9F1F5C
S11314E0FC01ED54FD4E0180F281E02DFD83EC837F
S11314F0848195819F838E83A481B58113961C93E7
S11315000E93129715830483EE89F0E0CF01880FC0
S1131510991F880F991F880F991FE80FF91FED5421
S1131520FD4EFB87EA8780818F5F80839E89E091EF
S1131530D712F091D8128689981708F092D80F9094
S11315400FBEDF91CF911F910F910895EF92FF92FB
S11315500F930F2EF3E7EF2EF2E1FF2EF02D00E0B4
S113156020E030E040E051E067E072E08CE790E09A
S1131570A8DE813009F44DD6813079F4F8948FEFE8
S11315809FEF909376128093751281E080937C1282
S113159010927F1210927E1232D8809106020F911F
S11315A0FF90EF900895809172128F5F8093721272
S11315B008950FB6F8940F9280917E1290917F1245
S11315C00F900FBE08950F931F93CF93DF938091D5
S11315D07212811100C1C0917E12D0917F128E01CE
S11315E00F5F1F4F10937F1200937E120115110598
S11315F0B1F480919F129091A01220919D1230918C
S11316009E123093A01220939F1290939E12809367
S11316109D12809178128F5F8093781268DC80919C
S11316207512909176120817190720F480E0B8C05B
S113163081E001C080E0E0919F12F091A0129081BE
S1131640911107C02FEF3FEF30937612209375125C
S1131650A7C0E0919F12F091A0120580F681E02DC1
S11316600680F781E02D228133810217130728F4C5
S1131670309376122093751293C0A285B38524818A
S1131680358146815781E9015D834C832681378109
S113169044815581E9015B834A8311962D913C91E4
S11316A01297AF014E5F5F4F2417350731F426813F
S11316B0378112963C932E931197138612869C9130
S11316C091509C93A489B589109719F12685378583
S11316D060897189E9017D836C83208931896685FC
S11316E07785E9017B836A8311966D917C911297CA
S11316F09F01245F3F4F6217730731F420893189BA
S113170012963C932E931197158A148A9C919150AA
S11317109C93268990917D12921710F420937D1248
S113172030E0D901AA0FBB1FAA0FBB1FAA0FBB1F12
S11317302A0F3B1FD901AD54BD4E11960D90BC919B
S1131740A02DB583A48314962D913C9115973783CE
S1131750268314962D913C911597E9015B834A8366
S113176015965C934E931497A689B0E09D01220FC1
S1131770331F220F331F220F331FA20FB31FAD5489
S1131780BD4EB387A2879C919F5F9C932689E0916D
S1131790D712F091D8129689291708F049CF4BCF68
S11317A0E091D712F091D812268930E0F901EE0FBA
S11317B0FF1FEE0FFF1FEE0FFF1F2E0F3F1FF9013C
S11317C0ED54FD4E9081923008F081E090917912B1
S11317D091110CC00CC080917A1290917B120196E9
S11317E090937B1280937A1280E001C081E0DF91B4
S11317F0CF911F910F910895CF93DF930FB6F89473
S11318000F928091721281508093721280917212A1
S11318108111BDC080918012811196C0BBC0E0913E
S11318209912F0919A120680F781E02DA489B58966
S1131830C685D785808991899D838C83C089D18908
S1131840868597859B838A8311962D913C91129767
S1131850CF010C962817390731F4808991891296A3
S11318609C938E931197158A148A8C9181508C9332
S1131870A285B385C481D581868197819D838C831C
S1131880C681D781848195819B838A8311968D91AA
S11318909C9112979F012E5F3F4F8217930731F45B
S11318A08681978112969C938E9311971386128644
S11318B08C9181508C93868990917D12981710F4A5
S11318C080937D1290E0DC01AA0FBB1FAA0FBB1FFF
S11318D0AA0FBB1F8A0F9B1FDC01AD54BD4E11968E
S11318E00D90BC91A02DB583A48314968D919C91E9
S11318F01597978386831496CD91DC9115973B8336
S11319002A8315963C932E931497A689B0E0CD01B3
S1131910880F991F880F991F880F991FA80FB91F47
S1131920AD54BD4EB387A2878C918F5F8C939689FB
S1131930A091D712B091D81256968C91981730F086
S113194081E08093791202C0E0E0F0E0809194128B
S1131950811165CFEF2B09F0CADAC0917A12D091C8
S11319607B12209761F02FDE882319F081E08093A9
S113197079122197C1F710927B1210927A128091FA
S11319807912882331F00E94310381E003C080E0A2
S113199001C080E00F900FBEDF91CF910895CF93E7
S11319A0DF93EC01892B31F0FEDD60E0CE010BDC2E
S11319B023DF01C080E0811102C00E943103DF9166
S11319C0CF91089580917212882321F081E0809351
S11319D07912089510927912E091D712F091D812E9
S11319E020813181E091D712F091D8128789908DAE
S11319F08217930758F06091D7127091D812675EDE
S1131A007F4F8091D7129091D812F8D520917D12F2
S1131A1001C02150822F90E0FC01EE0FFF1FEE0F5A
S1131A20FF1FEE0FFF1FE80FF91FED54FD4E30812D
S1131A30332379F3AC01440F551F440F551F440F52
S1131A40551F480F591FDF010180F281E02D0280EC
S1131A50F381E02D1296FC93EE9311974A545D4E58
S1131A60E417F50729F442815381FD015283418330
S1131A70FC01EE0FFF1FEE0FFF1FEE0FFF1F8E0F77
S1131A809F1FFC01ED54FD4E0180F281E02D868103
S1131A9097819093D8128093D71220937D12089542
S1131AA00F931F93CF93DF93EC010FB6F8940F922B
S1131AB0892B21F4C091D712D091D8128E010E5FD8
S1131AC01F4FC8010E94B5028C899D89892B21F082
S1131AD0CE010C960E94B502B80181E892E10E9401
S1131AE0630280E00FC0282F082E000C330BFE0188
S1131AF0E20FF31F97A1913021F4FE01E20FF31FCF
S1131B0017A28F5F18167CF70F900FBE80917C127E
S1131B10882331F00FB6F8940F92E9D90F900FBED5
S1131B208091D7129091D812C817D90799F480914F
S1131B307C12882319F00E9431030CC09091811209
S1131B4080918012981305C01092D8121092D71267
S1131B5001C038DFDF91CF911F910F910895CF938A
S1131B60DF93EB016091D7127091D812645F7F4FBD
S1131B700E94840261E0CE0126DBDF91CF910895BB
S1131B800F931F93CF93DF93FC018B01A181B2814B
S1131B908091D7129091D812EC01BF87AE878091C3
S1131BA0D7129091D81214962D913C911597EC016F
S1131BB0398B288B14968D919C9115972091D7126F
S1131BC03091D812245F3F4FEC013B832A8320914C
S1131BD0D7123091D812245F3F4F15963C932E9321
S1131BE01497A091D712B091D8125596FC93EE9306
S1131BF0549790819F5F9083442311F00FEF1FEF60
S1131C00642FC801E0DADF91CF911F910F910895FD
S1131C10CF93DF93DC011596ED91FC911697068026
S1131C20F781E02DA489B589C685D78580899189F6
S1131C309D838C83C089D189868597859B838A837C
S1131C4011968D919C9112979F01245F3F4F8217AB
S1131C50930731F48089918912969C938E931197FE
S1131C60158A148A8C9181508C93809172128111FF
S1131C7060C0A285B385C481D581868197819D8307
S1131C808C83C681D781848195819B838A831196B5
S1131C908D919C9112979F012E5F3F4F821793075E
S1131CA031F48681978112969C938E9311971386B3
S1131CB012868C9181508C93868990917D1298170D
S1131CC010F480937D1290E0DC01AA0FBB1FAA0FD1
S1131CD0BB1FAA0FBB1F8A0F9B1FDC01AD54BD4E57
S1131CE011960D90BC91A02DB583A48314968D916B
S1131CF09C911597978386831496CD91DC911597C3
S1131D003B832A8315963C932E931497A689B0E0BF
S1131D10CD01880F991F880F991F880F991FA80F4D
S1131D20B91FAD54BD4EB387A2878C918F5F8C933E
S1131D301CC044E952E1DA011196CD91DC9112976D
S1131D40D787C6878C819D81918B808B8C819D8167
S1131D50DC0113963C932E9312973D832C83558B71
S1131D60448BDA018C918F5F8C939689E091D71222
S1131D70F091D8128689891720F481E08093791232
S1131D8001C080E0DF91CF91089520917812FC0189
S1131D90208320917E1230917F1232832183089513
S1131DA01F93CF93DF930FB6F8940F92E0917E12B6
S1131DB0F0917F12DC0111964D915C911297DF0135
S1131DC0A41BB50BEB01288139812F3FDFEF3D07C1
S1131DD0F1F0EC011881C09178121C1741F0E4175E
S1131DE0F50728F0FB011182108281E011C0A217CF
S1131DF0B30740F4FB012A1B3B0B31832083C5DF6F
S1131E0080E006C0DB011D921C9281E001C080E0ED
S1131E100F900FBEDF91CF911F91089581E08093C1
S1131E207912089580917C12882331F08091721286
S1131E30811104C082E0089581E0089580E008954E
S1131E400F931F93CF93DF93FC01892B09F484C074
S1131E502689A091D712B091D81256968C91281742
S1131E6008F070C084859585992364F0A091D712F9
S1131E70B091D81256963C9184E090E0831B91096E
S1131E80958784878285938530E0A901440F551F87
S1131E90440F551F440F551F240F351F2D543D4E1D
S1131EA08217930709F045C0EF018F010E5F1F4FA2
S1131EB0C8010E94B502E091D712F091D812868928
S1131EC08E8B90917D12981710F480937D1290E080
S1131ED0FC01EE0FFF1FEE0FFF1FEE0FFF1F8E0F13
S1131EE09F1FFC01ED54FD4E0180F281E02DFD8326
S1131EF0EC83848195819F838E83A481B58113961D
S1131F001C930E931297158304838E8990E0FC0131
S1131F10EE0FFF1FEE0FFF1FEE0FFF1FE80FF91F5D
S1131F20ED54FD4EFB87EA8780818F5F808381E0DB
S1131F3016C0A091D712B091D81256968C91868B68
S1131F4081E00DC091A1E091D712F091D812868959
S1131F50981720F080E003C080E001C081E0DF91A9
S1131F60CF911F910F9108950F931F93CF93DF93F8
S1131F70FC01892B09F451C082A1815082A32689D6
S1131F8091A1291709F44BC081114BC0EF018F01B6
S1131F900E5F1F4FC8010E94B50289A18E8B24E0F9
S1131FA030E0281B31093D872C8790917D129817CA
S1131FB010F480937D1290E0FC01EE0FFF1FEE0FF2
S1131FC0FF1FEE0FFF1F8E0F9F1FFC01ED54FD4EF0
S1131FD00180F281E02DFD83EC83848195819F83D0
S1131FE08E83A481B58113961C930E931297158347
S1131FF00483EE89F0E0CF01880F991F880F991FA1
S1132000880F991FE80FF91FED54FD4EFB87EA87EF
S113201080818F5F808381E005C080E003C080E021
S113202001C080E0DF91CF911F910F9108950F932C
S11320301F93CF93DF93FC01892B09F466C091A110
S1132040961708F4962F8689981709F45EC022A182
S1132050213009F05AC0968B24853585332334F01A
S113206024E030E0291B3109358724872285338514
S113207090E0AC01440F551F440F551F440F551FEA
S1132080840F951F8D549D4E28173907F1F5EF01E4
S11320908F010E5F1F4FC8010E94B5028E89909177
S11320A07D12981710F480937D1290E0FC01EE0FDE
S11320B0FF1FEE0FFF1FEE0FFF1F8E0F9F1FFC0170
S11320C0ED54FD4E0180F281E02DFD83EC8384818B
S11320D095819F838E83A481B58113961C930E935F
S11320E01297158304838E8990E0FC01EE0FFF1F85
S11320F0EE0FFF1FEE0FFF1FE80FF91FED54FD4E0B
S1132100FB87EA8780818F5F8083DF91CF911F9166
S11321100F9108958091D7129091D812892B39F09C
S1132120E091D712F091D81282A18F5F82A380919F
S1132130D7129091D8120895DC01E091E112F09148
S1132140E212808191E0811190E09C93911106C08C
S11321500580F681E02D80819181089580E090E0F2
S11321600895FC017383628391878087461757071C
S113217090F0421B530B8485958548175907E0F46A
S1132180BF016E5F7F4F8091DF129091E0120E9439
S1132190840280E008954217530718F46217730706
S11321A068F4BF016E5F7F4F8091E1129091E2125B
S11321B00E94840280E0089581E0089581E00895FA
S11321C00FB6F8940F928091DD129091DE12892B54
S11321D0E9F48CEE92E10E94510283EE92E10E94B6
S11321E051028CEE92E19093E2128093E11283EE1D
S11321F092E19093E0128093DF1240E065E08AE080
S11322000E9425059093DE128093DD120F900FBE7D
S11322100895EF92FF920F93D3DF8091DD12909196
S1132220DE12892B89F00F2EFBEDEF2EF2E1FF2E4B
S1132230F02D03E020E030E045E550E06CE072E092
S113224084E890E03ED801C080E00F91FF90EF90C9
S113225008950F931F93CF93DF9300D01F921F9283
S1132260CDB7DEB7E091DD12F091DE12309769F15F
S1132270D90169835B834A839D838C836630E4F44C
S1132280D1DD823061F420E0A801BE016F5F7F4F91
S11322908091DD129091DE120E94480517C020E063
S11322A040E050E0BE016F5F7F4F8091DD1290915E
S11322B0DE120E9448050AC020E0AD01BE016F5F36
S11322C07F4FCF010E94E80501C080E00F900F907E
S11322D00F900F900F90DF91CF911F910F91089560
S11322E0EF92FF920F931F93CF93DF932FC005803C
S11322F0F681E02DE080F180C681D7818E010E5FEA
S11323001F4FC8010E94B502E889F989CE011995C9
S11323108A8982FF1BC08C859D858E0D9F1DE816C2
S1132320F90660F49B838A83D987C887B8018091B2
S1132330E1129091E2120E94840208C000E010E0D1
S113234020E030E0A70160E0CE0183DFE091E112FC
S1132350F091E21280818111CACF8091DF129091B5
S1132360E0129093E2128093E112F093E012E09372
S1132370DF12DF91CF911F910F91FF90EF9008959D
S11323800F931F93CF93DF938C0113D9EC018091AA
S1132390D9129091DA12C817D90728F4A1DF81E085
S11323A0F801808302C0F8011082D093DA12C0933E
S11323B0D912CE01DF91CF911F910F910895EF9221
S11323C0FF920F931F93CF93DF937C018B01E091D6
S11323D0E112F091E2120580F681E02DC681D781E9
S11323E0CE0102960E94B5028A8982FF13C06C85D1
S11323F07D856E0D7F1D9701A801CE01B2DE882375
S113240059F000E010E020E030E0A70160E0CE01E8
S113241020DF02C08E7F8A8BE889F989CE01199565
S1132420DF91CF911F910F91FF90EF900895CF927C
S1132430DF92EF92FF921F93CF93DF931F92CDB75A
S1132440DEB77C01162FAFD8CE01019699DF6C015F
S11324508981811124C0111108C0CE14DF0428F031
S1132460CBD9B601C701ABDF1BC0112341F0E0910A
S1132470DF12F091E012808111E0811110E0B701C8
S11324806C197D09412F8091DD129091DE120E941A
S11324904507B2D9811104C00E94310301C0ACD9EF
S11324A00F90DF91CF911F91FF90EF90DF90CF902D
S11324B00895EF92FF920F931F93CF93DF9300D071
S11324C000D0CDB7DEB76CC0898188230CF468C016
S11324D0EC80FD80D7011A968D919C911B97892BD6
S11324E021F0C70102960E94B502CE01069648DF8C
S11324F0AC01E9810E2E000CFF0BEA30F10508F067
S11325004FC08827EE58FF4F8F4F0C943E20F701A1
S113251082898160828B2A813B8164857585620F03
S1132520731FC7011EDE8823D9F1D7015096ED91A0
S1132530FC915197C7011995F701828982FF30C038
S11325404A815B8184859585480F591F00E010E01E
S113255020E030E060E0C7017CDE22C0D701529663
S11325608C9152978E7F52968C931AC0F701828970
S11325708160828B6A817B8175876487640F751F94
S11325809A01C701EEDD0CC0D70152968C9181FDF2
S113259004C0C7010E94140203C08E7FF701828B1E
S11325A040E050E0BE016F5F7F4F8091DD1290915B
S11325B0DE120E942306811187CF26960FB6F89467
S11325C0DEBF0FBECDBFDF91CF911F910F91FF9062
S11325D0EF90089584B1806884B985B1806885B925
S11325E0089583B1806883B90895F4DF83ED90E39F
S11325F00197F1F700C00000F4DFF8CFEBDF2FE71D
S11326008AE196E0215080409040E1F700C000004C
S1132610E8DFF5CF8DB181608DB9E1E0F1E0808133
S11326208863808384B1806F84B914BC15BC16BCE4
S113263082E084BD9AEF97BD80936E0081E085BDF2
S113264088E680937C00EAE7F0E0808180688083FC
S11326508081806480838FEF80937E008CEF8093F1
S11326607F0008951F920F920FB60F9211240BB69C
S11326700F928F939F93AF93BF93EF93FF93ECE9E4
S1132680F3E184899589A689B7890196A11DB11DB5
S1132690848B958BA68BB78B16BCFF91EF91BF9162
S11326A0AF919F918F910F900BBE0F900FBE0F9023
S11326B01F901895EF92FF920F93ACDF41E062E414
S11326C084E00E947C1B41E050E060E08CE393E1F5
S11326D0B5D761E070E08CE393E1C9D791E0811153
S11326E001C090E09093A61381E00E94DC059093D2
S11326F0F6128093F51220E040E050E060E070E0D4
S11327000E9448050F2EF1E0EF2EF3E1FF2EF02D8D
S113271000E020E030E040E051E064E172E08CE968
S113272098E10E9461090F2EFFEFEF2EF2E1FF2ED8
S1132730F02D03E020E030E040E051E06AE172E097
S11327408CED99E10E9461090F2EFBEFEF2EF2E16F
S1132750FF2EF02D00E020E030E040E051E066E2A2
S113276072E085E09DE10E9461090F2EF7EFEF2EE4
S1132770F2E1FF2EF02D01E020E030E040E051E0F6
S11327806DE272E08EE69DE10E9461090F2EF9EF81
S1132790EF2EF2E1FF2EF02D00E020E030E040E0EB
S11327A051E068E272E08AE99CE10E9461090F2E1F
S11327B0FDEFEF2EF2E1FF2EF02D02E020E030E0FD
S11327C040E051E063E372E080EF93E10E9461092D
S11327D00E94A60A80E090E00F91FF90EF90089588
S11327E0C12CD12CCCD0009709F06C0180E0E4D747
S11327F09601205B3F4F8217930728F0C114D10440
S113280021F4C0E003C0C0E001C0C1E084E793E16B
S11328100E94C800653671058105910518F0C11143
S113282003C003C0C0E001C0C1E0CC2309F4A3C0CD
S113283084E793E10E94F500809103138F5F8093F6
S11328400313809165139091661381309105C9F14A
S113285040F08230910509F455C0049709F473C01F
S11328608AC08091081390910913009749F00E943F
S1132870AC09109209131092081381E090E08FD8EC
S11328808091081390910913009749F00E94AC09B4
S1132890109209131092081381E090E080D80F2E53
S11328A0F8E0EF2EF3E1FF2EF02D03E023E033E117
S11328B040E850E069E372E080EB97E10E9461092F
S11328C05AC08091061390910713009749F00E9413
S11328D0AC09109207131092061381E090E05FD8C0
S11328E00F2EF6E0EF2EF3E1FF2EF02D03E023E0B0
S11328F033E140E850E065E472E089EF97E10E943B
S1132900610939C08091041390910513009749F02F
S11329100E94AC09109205131092041381E090E018
S11329203ED80F2EF4E0EF2EF3E1FF2EF02D03E05E
S113293023E033E140E850E061E572E08FE098E1A4
S11329400E94610918C08091FD129091FE120E94AC
S1132950F709833041F08091FD129091FE12892B8A
S113296019F4C0E001C0C0E0CC2329F08091FD122D
S11329709091FE1295D881E090E011D833CF80E099
S11329801BD720911013309111132817390720F405
S113299090931113809310138DE893E10E94C80063
S11329A0643171058105910548F12091101330912E
S11329B0111380910C1390910D13A0910E13B091EB
S11329C00F13820F931FA11DB11D80930C139093BD
S11329D00D13A0930E13B0930F1380910A139091CB
S11329E00B13019690930B1380930A1310921113F7
S11329F0109210138DE893E10E94F50020910A13C0
S1132A0030910B1322333105F0F040E050E0609137
S1132A100C1370910D1380910E1390910F130E945B
S1132A201C2010920C1310920D1310920E1310927E
S1132A300F1310920B1310920A1310921113109289
S1132A401013C901089580E090E00895809108135F
S1132A5090910913009751F00E94AC091092091348
S1132A601092081381E090E00E94CF0C809106132D
S1132A7090910713009751F00E94AC09109207132C
S1132A801092061381E090E00E94CF0C8091041311
S1132A9090910513009751F00E94AC091092051310
S1132AA01092041381E090E00E94CF0C80E090E04B
S1132AB00C94CF0C0895CF92DF92EF92FF92CF93B4
S1132AC0DF93C5E6D3E16A817B81072E000C880B76
S1132AD0990B0E94F21E6B017C0168857985072E93
S1132AE0000C880B990B0E94F21E9B01AC01C701DC
S1132AF0B6010E94821F20E030E04FE753E40E94B9
S1132B005C1E0E94C41E462F62E484E067D66C817A
S1132B107D81072E000C880B990B0E94F21E6B011D
S1132B207C0168857985072E000C880B990B0E941F
S1132B30F21E9B01AC01C701B6010E94821F20E076
S1132B4030E04FE753E40E945C1E0E94C41E462FEF
S1132B5062E485E043D66E817F81072E000C880BEA
S1132B60990B0E94F21E6B017C0168857985072E02
S1132B70000C880B990B0E94F21E9B01AC01C7014B
S1132B80B6010E94821F20E030E04FE753E40E9428
S1132B905C1E0E94C41E462F62E486E01FD6DF91AD
S1132BA0CF91FF90EF90DF90CF900895CF9387E679
S1132BB093E10E940121A0915513B0915613E7E6C9
S1132BC0F3E18D919C9111979183808312968C915E
S1132BD08283C0E0C53010F540E062E484E08CD527
S1132BE040E062E485E088D540E062E486E084D594
S1132BF087E090E00E94CF0C41E062E484E07CD561
S1132C0041E062E485E078D541E062E486E074D591
S1132C1087E090E00E94CF0CCF5FDCCFCF91089586
S1132C20CF92DF92FF920F931F93CF93DF93EC0128
S1132C300091671310916813E881F0E03C96EE0F61
S1132C40FF1FE35CFC4E0190F081E02D808190E059
S1132C500817190799F44091691350916A13218157
S1132C6030E04217530751F440916B1350916C13A9
S1132C70228130E04217530709F4EEC08017910710
S1132C8014F041E001C04FEF818190E0C0906913DE
S1132C90D0906A138C159D0514F021E001C02FEF2C
S1132CA0828190E0A0916B13B0916C138A179B07FB
S1132CB014F091E001C09FEFF42E042E000C550B8C
S1132CC0BA01660F771F440F551F440F551F440F59
S1132CD0551F640F751F600F711FE5E6F3E17383E1
S1132CE06283122F022E000C330BA901440F551FCF
S1132CF0220F331F220F331F220F331F240F351FC0
S1132D00A601420F531F55834483092F892F990F1E
S1132D10990B6C01CC0CDD1C9C01220F331F220F7C
S1132D20331F220F331FC601820F931F8A0F9B1F6D
S1132D309783868321E0F21213C0E881F0E03C9689
S1132D40EE0FFF1FE35CFC4E0190F081E02D20812B
S1132D5030E02617370724F4309368132093671361
S1132D60113099F4E881F0E03C96EE0FFF1FE35C2C
S1132D70FC4E0190F081E02D218130E024173507CD
S1132D8024F430936A1320936913013099F4E88191
S1132D90F0E03C96EE0FFF1FE35CFC4E0190F081E7
S1132DA0E02D228130E02817390724F430936C1386
S1132DB020936B138FEFF81217C020916713309193
S1132DC06813E881F0E03C96EE0FFF1FE35CFC4ED5
S1132DD00190F081E02D808190E02817390724F4D8
S1132DE090936813809367131F3FB9F4209169137C
S1132DF030916A13E881F0E03C96EE0FFF1FE35C2C
S1132E00FC4E0190F081E02D818190E02817390774
S1132E1024F490936A13809369130F3FB9F42091BB
S1132E206B1330916C13E881F0E03C96EE0FFF1FBA
S1132E30E35CFC4E0190F081E02D828190E0281744
S1132E40390724F490936C1380936B1334DE80E081
S1132E5090E00E94CF0CECCEDF91CF911F910F91A7
S1132E60FF90DF90CF900895CF93DF93C82FD62F94
S1132E702FEF83EC99E0215080409040E1F700C0AF
S1132E8000001C1654F420916D1330916E1381E0F0
S1132E902F3F31055CF080E009C020916D13309123
S1132EA06E1381E0121613060CF080E08823F9F00B
S1132EB080916D1390916E1328E0C202800D911DD4
S1132EC01124992314F480E090E08F3F910519F0C8
S1132ED014F08FEF90E090936E1380936D13EBDDFD
S1132EE08D2F82958F7090E00E94CF0CCACFDF9116
S1132EF0CF9108958E55924039F484E090E09093F8
S1132F0066138093651322C0209165133091661374
S1132F102430310529F4109266131092651316C0FB
S1132F20A9014F5F5F4F9A01ABEABAEA0E944620BB
S1132F30969587959C01220F331F820F931F9A0148
S1132F40281B390B30936613209365134091651346
S1132F505091661360E08CE393E170D377CD0895CC
S1132F60CF93DF93EC01A5E6B3E18FEF90E01996E0
S1132F709C938E931897E881F0E03C96EE0FFF1F28
S1132F80E35CFC4E0190F081E02D808190E013968B
S1132F909C938E931297E881F0E03C96EE0FFF1F0E
S1132FA0E35CFC4E0190F081E02D818190E0159668
S1132FB09C938E931497E881F0E03C96EE0FFF1FEC
S1132FC0E35CFC4E0190F081E02D828190E0179645
S1132FD09C938E9316976FE08FEF46DF1092091340
S1132FE01092081380E090E00E94AC09DF91CF9129
S1132FF008952091041330910513232B31F42FEFFE
S113300030E030936E1320936D130ADE1092071391
S11330101092061380E090E00C94AC090895CF93CD
S1133020DF932091061330910713232BA1F5DC01C4
S1133030EC91F0E03C96EE0FFF1FE35CFC4E019038
S1133040F081E02D2081A5E6B3E130E013963C93B6
S11330502E931297EC01E881F0E03C96EE0FFF1FEF
S1133060E35CFC4E0190F081E02D218130E0159667
S11330703C932E931497E881F0E03C96EE0FFF1FEB
S1133080E35CFC4E0190F081E02D828190E0179684
S11330909C938E93169767E081E0E6DE67E08FEFFE
S11330A0E3DE109205131092041380E090E00E9476
S11330B0AC09DF91CF9108950197B1F46F3F7F4F31
S11330C099F4EBE1F3E184E4868322E030E0358394
S11330D0248310861782E2E1F3E1868384E090E0A2
S11330E09583848310861782089540E062E487E024
S11330F003D340E068E483E0FFD21092A41384E099
S113310090E09093661380936513089560E070E0F7
S11331108CE393E1ACD290E09093661380936513B3
S113312041E062E487E0E8D241E068E483E0E4D28D
S113313081E08093A413089582E193E101D5C82F1F
S113314081110BC08EE793E10E94C8006F317105B5
S11331508105910518F0C1E001C0C0E0CC2381F0E5
S11331608091A4138111C1DF8FE693E10E94F500E1
S113317082E193E12CD5882361F01092A81309C051
S113318082E193E1DDD4882321F08EE793E10E946C
S1133190F5006FEF7FEF8091F5129091F6120E9487
S11331A0A40683E893E10E94C800653F714081054D
S11331B09105D8F083E893E10E94F50082E0FCD207
S11331C0CCE9D3E1C880D980EA80FB80BC0180E0EF
S11331D090E006D6A701960195D620E030EC4FE7A3
S11331E054E46AD5D1D57B8B6A8B20E040E050E073
S11331F060E070E08091F5129091F6120E9448050B
S11332008FE693E10E94C800603D774081059105F7
S1133210A8F08091A813811113C08091AE139091EE
S1133220AF1387319D4020F48091A513882351F07A
S11332308091A413882341F080E007C080E005C09A
S113324080E003C080E001C081E081115FDF8091F4
S1133250AE139091AF13853E9C4070F48BE193E1E3
S11332606FD481110BC02091AE133091AF13232B77
S113327031F08091A41303C080E001C080E081118B
S113328034DF86E090E00E94CF0C56CF6FEF7FEFE3
S113329081E090E011CF08950197A1F46F3F7F4F33
S11332A089F4EDE2F3E11082118215861486168604
S11332B0E4E2F3E182E4868384E090E0958384830E
S11332C0108617820895EDE2F3E11082118281E005
S11332D086876CDC8FE293E10E94F5008FEF90E02B
S11332E090936E1380936D136FE08FEFBDDD8FE1CC
S11332F090E00E94CF0C8091FD129091FE120E94EA
S1133300F709833041F48091FD129091FE12892BCC
S113331021F480E003C080E001C081E0882331F023
S11333208091FD129091FE120C94430A08950FB6F9
S1133330F8940F92DADE2FEF89EF90E0215080406D
S11333409040E1F700C000008BB180688BB98FE634
S113335093E10E94F5002FEF89EF90E02150804027
S11333609040E1F700C0000081E08093A5130F9026
S11333700FBE08950FB6F8940F92B7DE2FEF89EFC2
S113338090E0215080409040E1F700C000008BB1F4
S11333908F778BB98FE693E10E94F5002FEF89EFC9
S11333A090E0215080409040E1F700C0000010926E
S11333B0A5130F900FBE089584E293E1C1D388232F
S11333C029F088E893E10E94F5000BC088E893E1B6
S11333D00E94C800633371058105910510F01092B5
S11333E03B13C091A413CC2309F4DCC0D0913B134C
S11333F0D111D8C080912D13882321F0813009F494
S113340051C0D0C084E393E10E94C800693E734078
S11334108105910508F43CC0EDE2F3E181E080838D
S113342011828FE293E10E94F50084E393E10E940C
S1133430F5008091FD129091FE120E94F7098330ED
S113344041F08091FD129091FE12892B19F4CD2F39
S113345001C0CD2FCC2331F08091FD129091FE124A
S11334600E94500DF3DA6FE08FEFFEDC9FDB8FEFED
S113347090E090936E1380936D138EE293E1D0DB12
S11334808CE090E00E94CF0C81E080933B138AC0D3
S113349084E293E155D3811185C084E393E10E94D2
S11334A0F50080C08FE293E10E94C8006137774144
S11334B08105910508F007DF84E293E141D3882375
S11334C009F44DC084E393E10E94C8000DE213E1C6
S11334D0F801758764878FE293E10E94F500F80193
S11334E084859585893E934008F45CC0F80181E0A9
S11334F086878181813029F118F0823039F12AC020
S1133500ECE9F3E1C58581E0C827C587CC23B9F090
S11335108091FB129091FC120E94F709833039F4D8
S11335208091FB129091FC12892B09F0DC2FDD2392
S113353031F08091FB129091FC120E94430AC3DE89
S113354009C08BE092E0D6DCBEDE04C08EE592E0DA
S1133550D1DCB9DE84E393E10E94F50023C08091BD
S1133560391390913A130097E9F0843F914048F45D
S1133570EDE2F3E1818190E0019663E070E049D5EA
S113358081838FEF90E090936E1380936D138EE29E
S113359093E146DB84E393E10E94F50010923A1331
S11335A0109239138BE193E1CBD2C82F882331F0E9
S11335B08091A513882319F0C0E001C0C0E0CC239A
S11335C0A1F08FEF99EFE0E081509040E040E1F707
S11335D000C00000ACDEFFEF29EF80E0F150204096
S11335E08040E1F700C000001EC08BE193E1A8D247
S11335F0811104C08091A5138111C82FCC2399F0A7
S11336009FEFE9EFF0E09150E040F040E1F700C0B7
S11336100000B0DE2FEF89EF90E021508040904011
S1133620E1F700C0000081E090E00E94CF0CC4CE1E
S11336306FEF7FEF81E090E02FCE08950F931F93FB
S1133640CF93C62F8A01F99B05C081E090E00E94C8
S1133650CF0CF9CF12BD01BDC0BD8FB384608FBB49
S11336608FB382608FBBCF911F910F910895CF9339
S1133670DF93EB01F99B05C081E090E00E94CF0C41
S1133680F9CFD2BDC1BD8FB381608FBB80B5DF914F
S1133690CF910895623479F5853089F08630E9F068
S11336A0843049F5E0EBF0E080818F77808380817E
S11336B085FD21C01092B1001092B2000895E0E897
S11336C0F0E080818F778083808185FD06C0109231
S11336D081001092850010928400E0E8F0E080817F
S11336E08F7D80838081882334F010928100109232
S11336F085001092840008951F93CF93DF93D82FF1
S1133700C62F142FC7DFC434F1F0C834A9F1C23472
S113371009F04EC0112359F025B181E090E002C0B8
S1133720880F991FDA95E2F7822B85B941C025B13C
S113373081E090E002C0880F991FDA95E2F7809546
S1133740822385B935C0112359F02BB181E090E073
S113375002C0880F991FDA95E2F7822B8BB928C033
S11337602BB181E090E002C0880F991FDA95E2F74F
S1133770809582238BB91CC0112369F0E2E0F1E04B
S1133780208181E090E002C0880F991FDA95E2F76A
S1133790822B80830DC0E2E0F1E0208181E090E0A3
S11337A002C0880F991FDA95E2F7809582238083FF
S11337B0DF91CF911F910895E0EEF0E08081806465
S11337C0808380917A0086FF05C081E090E00E94AA
S11337D0CF0CF7CF8091790090E00895623489F599
S11337E094B121E030E0082E02C0220F331F0A9466
S11337F0E2F7292B24B9853069F08630B9F084309A
S113380001F583E88093B00081E08093B100409398
S1133810B300089589E88093800081E0809381005B
S113382050E05093890040938800089589E2809382
S1133830800081E08093810050E050938B0040939E
S11338408A000895019709F06EC06F3F7F4F09F019
S11338506AC0ECE9F3E180E090E4ACE9B5E480838C
S11338609183A283B38380E090E0A0EAB0E48483F0
S11338709583A683B78310861186148681E0858795
S113388016861786108A118A138A128A148A158A50
S1133890168A178AE5E6F3E184E090E09183808359
S11338A01382128215821482178216821186108660
S11338B0EDE3F3E18FEF808381838283138284833A
S11338C015828683178210861186128683878487E1
S11338D0858716861786808B818B828B138A848BCF
S11338E0858B84E1868B83E9878BF18FE08F80E47D
S11338F093E1938F828F83E493E1958F848F86E4A1
S113390093E1978F868F89E493E191A380A38CE45C
S113391093E193A382A38FE493E195A384A382E527
S113392093E197A386A308956FEF7FEF81E090E082
S113393089CF08956FEF7FEF8091F5129091F61281
S11339400E94A4068091AE139091AF13863320E1B8
S1133950920740F02091A613211104C081E08093C6
S1133960A61308C0813A9F4028F48091A6138111C0
S11339701092A61320E040E050E060E070E08091F7
S1133980F5129091F6120E9448058091A6138111B8
S113399009C0C091A813C11105C08BE193E1D0D037
S11339A0811102C0C091A713CC2339F040E064E434
S11339B086E0A2DE1092A71323C0D091A613D111E2
S11339C012C08BE193E1BCD0C82F882361F08091B1
S11339D0A813811105C09091A713911103C003C0CE
S11339E0CD2F01C0C82FCC2359F08EE390E00E9464
S11339F0CF0C41E064E486E07FDE81E08093A7138E
S1133A0086E090E00E94CF0C95CFC091A913CC23FF
S1133A1009F445C08BE193E193D0D82F811124C0E0
S1133A2089E793E10E94C8006832734281059105D9
S1133A3020F48091A4138111CD2FCC2341F089E788
S1133A4093E10E94F50085B18B7F85B942C089E777
S1133A5093E10E94C8006137774181059105C8F15F
S1133A6085B1846085B935C08091A713882369F036
S1133A708FE190E00E94CF0C95B184E0892785B94D
S1133A8089E793E10E94F50024C085B1846085B97B
S1133A908BEB90E00E94CF0C1092A9131AC085B151
S1133AA08B7F85B98091FB129091FC120E94F709DB
S1133AB0833039F08091FB129091FC12892B09F02C
S1133AC0C1E0CC2331F08091FB129091FC120E9452
S1133AD0500D8CE090E00E94CF0C97CF87E791E0E7
S1133AE00E94CF0C81E068DECCE9D3E1C880D980A4
S1133AF0EA80FB80BC0180E090E072D1A7019601CE
S1133B0001D220E030EC4FE754E4D6D026E031E88F
S1133B1045E95DEBF7D126E031EC40E453E468D0AD
S1133B206E877F87888B998B20E030E040E752E4F2
S1133B30E5D118169CF681E08093A813D6DACECF8F
S1133B40FC0186818234B9F0843449F549B181E0BD
S1133B5090E09C01048002C0220F331F0A94E2F714
S1133B60842F90E08223932321E0181619060CF089
S1133B7020E0218314C043B181E090E09C010480E3
S1133B8002C0220F331F0A94E2F7842F90E08223AD
S1133B90932321E0181619060CF020E02183878175
S1133BA09085892B21F0918181E0892781839081FF
S1133BB08181981731F0882321F091E092838083EA
S1133BC00895981719F091E0938380830895CF9313
S1133BD0DF93EC01B5DF8981882319F01B8280E033
S1133BE003C08B8181111B82DF91CF9108955058BE
S1133BF0BB27AA270ED048C139D130F03ED120F0DE
S1133C0031F49F3F11F41EF42EC10EF4E095E7FB4E
S1133C1024C1E92F4AD180F3BA17620773078407D6
S1133C20950718F071F49EF562C10EF4E0950B2E21
S1133C30BA2FA02D0B01B90190010C01CA01A001FA
S1133C401124FF27591B99F0593F50F4503E68F155
S1133C501A16F040A22F232F342F4427585FF3CF96
S1133C60469537952795A795F0405395C9F77EF467
S1133C701F16BA0B620B730B840BBAF09150A1F0B0
S1133C80FF0FBB1F661F771F881FC2F70EC0BA0F36
S1133C90621F731F841F48F4879577956795B795BE
S1133CA0F7959E3F08F0B3CF9395880F08F09927B6
S1133CB0EE0F9795879508950CD0E6C0DED040F0BE
S1133CC0D5D030F021F45F3F19F0C7C0511110C1B5
S1133CD0CAC0EBD098F39923C9F35523B1F3951BCC
S1133CE0550BBB27AA2762177307840738F09F5F19
S1133CF05F4F220F331F441FAA1FA9F333D00E2E88
S1133D003AF0E0E830D091505040E695001CCAF7F4
S1133D1029D0FE2F27D0660F771F881FBB1F2617B9
S1133D2037074807AB07B0E809F0BB0B802DBF018C
S1133D30FF2793585F4F2AF09E3F510568F08DC0CE
S1133D40D7C05F3FECF3983EDCF386957795679593
S1133D50B795F7959F5FC9F7880F911D969587953D
S1133D6097F90895E1E0660F771F881FBB1F62175C
S1133D7073078407BA0720F0621B730B840BBA0B1A
S1133D80EE1F88F7E095089598D088F09F5790F03B
S1133D90B92F9927B751A0F0D1F0660F771F881F6C
S1133DA0991F1AF0BA95C9F712C0B13081F09FD0AB
S1133DB0B1E008959CC0672F782F8827B85F39F049
S1133DC0B93FCCF3869577956795B395D9F73EF4CB
S1133DD090958095709561957F4F8F4F9F4F089573
S1133DE0E89409C097FB3EF4909580957095619591
S1133DF07F4F8F4F9F4F9923A9F0F92F96E9BB2747
S1133E009395F695879577956795B795F111F8CFC2
S1133E10FAF4BB0F11F460FF1BC06F5F7F4F8F4F2D
S1133E209F4F16C0882311F096E911C0772321F023
S1133E309EE8872F762F05C0662371F096E8862FBB
S1133E4070E060E02AF09A95660F771F881FDAF712
S1133E50880F9695879597F9089597F99F6780E855
S1133E6070E060E008959FEF80EC089500240A94C8
S1133E701616170618060906089500240A94121641
S1133E801306140605060895092E0394000C11F474
S1133E90882352F0BB0F40F4BF2B11F460FF04C021
S1133EA06F5F7F4F8F4F9F4F089557FD9058440F7A
S1133EB0551F59F05F3F71F04795880F97FB991F85
S1133EC061F09F3F79F08795089512161306140642
S1133ED0551FF2CF4695F1DF08C0161617061806CF
S1133EE0991FF1CF86957105610508940895E894AA
S1133EF0BB2766277727CB0197F9089566D008F486
S1133F008FEF08950BD0C0CFB1DF28F0B6DF18F0E3
S1133F10952309F0A2CFA7CF1124EACFC6DFA0F3DF
S1133F20959FD1F3950F50E0551F629FF001729F4A
S1133F30BB27F00DB11D639FAA27F00DB11DAA1F69
S1133F40649F6627B00DA11D661F829F2227B00DB6
S1133F50A11D621F739FB00DA11D621F839FA00D41
S1133F60611D221F749F3327A00D611D231F849F91
S1133F70600D211D822F762F6A2F11249F575040E8
S1133F808AF0E1F088234AF0EE0FFF1FBB1F661F83
S1133F90771F881F91505040A9F79E3F510570F03C
S1133FA05CCFA6CF5F3FECF3983EDCF38695779524
S1133FB06795B795F795E7959F5FC1F7FE2B880F37
S1133FC0911D9695879597F90895990F0008550FB7
S1133FD0AA0BE0E8FEEF16161706E807F907C0F08B
S1133FE012161306E407F50798F0621B730B840B93
S1133FF0950B39F40A2661F0232B242B252B21F46D
S113400008950A2609F4A140A6958FEF811D811D0C
S1134010089597FB072E16F4009406D077FD08D078
S113402044D007FC05D03EF4909581959F4F0895A8
S1134030709561957F4F0895A1E21A2EAA1BBB1BB0
S1134040FD010DC0AA1FBB1FEE1FFF1FA217B30760
S1134050E407F50720F0A21BB30BE40BF50B661F76
S1134060771F881F991F1A9469F76095709580953A
S113407090959B01AC01BD01CF010895EE0FFF1F88
S1134080881F8BBF0790F691E02D1994A29FB00171
S1134090B39FC001A39F700D811D1124911DB29F78
S11340A0700D811D1124911D0895AA1BBB1B51E1A4
S11340B007C0AA1FBB1FA617B70710F0A61BB70B94
S11340C0881F991F5A95A9F780959095BC01CD0139
S11340D008950F931F93CF93DF938230910510F4CB
S11340E082E090E0E091B613F091B71320E030E065
S11340F0A0E0B0E0309719F1408151810281138131
S113410048175907C8F08417950769F4109731F0D8
S113411012960C93129713961C9327C00093B61310
S11341201093B71322C02115310519F04217530714
S113413018F49A01BD01EF01DF01F801DBCF21156D
S11341403105F9F0281B390B2430310580F48A81BC
S11341509B816115710521F0FB019383828304C067
S11341609093B7138093B613FE01329644C0FE01B8
S1134170E20FF31F819391932250310939832883ED
S11341803AC02091B4133091B513232B41F42091FC
S11341900202309103023093B5132093B41320919B
S11341A00002309101022115310541F42DB73EB7CB
S11341B04091040250910502241B350BE091B41385
S11341C0F091B513E217F307A0F42E1B3F0B281749
S11341D0390778F0AC014E5F5F4F2417350748F07C
S11341E04E0F5F1F5093B5134093B4138193919373
S11341F002C0E0E0F0E0CF01DF91CF911F910F9179
S11342000895CF93DF93009709F481C0FC0132979E
S113421013821282A091B613B091B713109781F450
S113422020813181820F931F2091B4133091B513F3
S11342302817390751F5F093B513E093B41367C009
S1134240ED0120E030E0CE17DF0740F44A815B81C6
S11342509E0141155105F1F0EA01F5CFD383C283E4
S113426040815181840F951FC817D90759F488815B
S11342709981840F951F0296918380838A819B8103
S1134280938382832115310529F4F093B713E093C6
S1134290B6133DC0E901FB83EA8349915991C40FE8
S11342A0D51FEC17FD0761F480819181840F951F60
S11342B00296E90199838883828193819B838A830F
S11342C0E0E0F0E012968D919C911397009719F01D
S11342D0FD01DC01F7CF8D919C9111979D012E5F1B
S11342E03F4F820F931F2091B4133091B5132817B9
S11342F0390769F4309729F41092B7131092B61362
S113430002C013821282B093B513A093B413DF9149
S1134310CF910895FB01DC0102C001900D92415040
S11343205040D8F70895DC0101C06D9341505040CE
S10B4330E0F70895F894FFCFB3
S11343380000B81320000349444C4500546D722012
S1134348537663005F636F7265004576656E7473B8
S1134358207461736B004C56434852470074686577
S1134368726D004155535953004E6F726D616C2044
S11343784661646500436F6C6F7220736869667484
S113438800427265617468652046616465006F6601
S10543986600B9
S9030000FC
