S01700004763634170706C69636174696F6E312E737265635B
S113000094C00000C3C00000C1C00000BFC0000015
S1130010BDC00000BBC00000B9C00000B7C00000F4
S1130020B5C00000B3C00000B1C00000AFC0000004
S1130030A7C20000ABC00000A9C00000A7C0000018
S1130040A5C00000A3C00000A1C000009FC0000024
S11300509DC000009BC0000099C0000097C0000034
S113006095C0000093C0000091C000008FC0000044
S11300708DC000008BC0000089C0000087C0000054
S113008085C0000083C0000081C000007FC0000064
S11300907DC000007BC0000079C0000077C0000074
S11300A075C0000073C0000071C000006FC0000084
S11300B06DC000006BC0000069C000000C941B19E7
S11300C065C0000063C0000061C000005FC00000A4
S11300D05DC000005BC0000059C0000057C00000B4
S11300E055C000004F114F114F1176117E118C1124
S11300F04F114F1176117E110CD78091A3028230DB
S1130100D8F379D1F9CFCF93DF931F92CDB7DEB770
S1130110CE0101960E94640F69810E94DF100E9443
S11301202111F6CF5C170919F81911241FBECFEF5E
S1130130D1E2DEBFCDBF00E00CBF12E0A0E0B2E030
S1130140E4E8FEE300E00BBF02C007900D92A23684
S1130150B107D9F723E0A2E6B2E001C01D92A73AA5
S1130160B207E1F710E0C5E9D0E000E006C021974E
S11301700109802FFE010E94E41DC239D10780E0ED
S11301800807A9F70E94F2110C94401F39CF0F936E
S11301901F93FC0180818823A9F080919F03909193
S11301A0A003A091A103B091A20301811281238134
S11301B03481BC01CD01601B710B820B930B1F9129
S11301C00F91089580919F039091A003A091A103A2
S11301D0B091A20381839283A383B48381E080835B
S11301E060E070E0CB011F910F910895FC01108233
S11301F00895CF93DF93EC010E949B09CE010E94E6
S11302000F1EEC010E94C40A209711F40E94B2113F
S1130210CE01DF91CF910895CF93DF93009741F002
S1130220EC010E949B09CE010E94A71E0E94C40AF1
S1130230DF91CF910895FC010396928381832FEF80
S11302403FEF34832383968385839087878310824B
S11302500895FC01118610860895CF93DF939C01C5
S1130260FB01DC011196CD91DC911297D383C283FB
S11302708C819D81958384838C819D81DC0113967F
S11302807C936E9312977D836C8331872087F90169
S113029080818F5F8083DF91CF910895CF93DF9327
S11302A0EB01488159814F3F2FEF520721F4FC01A4
S11302B0A781B0850DC0DC01139601C0DF01129641
S11302C0ED91FC9113972081318142175307B0F7C8
S11302D01296ED91FC911397FB83EA83D583C48333
S11302E0BD83AC831396DC93CE931297998788874A
S11302F0FC0120812F5F2083DF91CF910895CF935C
S1130300DF93FC01A085B185C281D381848195816D
S11303109D838C83C481D581828193819B838A83CD
S113032011968D919C911297E817F90731F4848105
S1130330958112969C938E931197118610868C91B9
S113034081508C938C91DF91CF910895A89590EC76
S113035088E10FB6F894A895809360000FBE90933F
S113036060000895FC016083319770833197108297
S113037031971082319720E820833197108231978A
S113038010823197108277974083319750838697F4
S11303900895DCDFA091C702B091C802CD91CDBF12
S11303A0DD91DEBFFF91EF91DF91CF91BF91AF91CE
S11303B09F918F917F916F915F914F913F912F9179
S11303C01F910F91FF90EF90DF90CF90BF90AF906F
S11303D09F908F907F906F905F904F903F902F9061
S11303E01F900F900CBE0F900BBE0F900FBE0F907E
S11303F0089581E008950F920FB6F8940F920BB60A
S11304000F920CB60F921F9211242F923F924F928B
S11304105F926F927F928F929F92AF92BF92CF9290
S1130420DF92EF92FF920F931F932F933F934F937B
S11304305F936F937F938F939F93AF93BF93CF9368
S1130440DF93EF93FF93A091C702B091C8020DB65A
S11304500D920EB60D920E94AA0BA091C702B09104
S1130460C802CD91CDBFDD91DEBFFF91EF91DF9149
S1130470CF91BF91AF919F918F917F916F915F9138
S11304804F913F912F911F910F91FF90EF90DF902B
S1130490CF90BF90AF909F908F907F906F905F9020
S11304A04F903F902F901F900F900CBE0F900BBE5B
S11304B00F900FBE0F9008950F920FB6F8940F92FD
S11304C00BB60F920CB60F921F9211242F923F92EB
S11304D04F925F926F927F928F929F92AF92BF9250
S11304E0CF92DF92EF92FF920F931F932F933F933C
S11304F04F935F936F937F938F939F93AF93BF9328
S1130500CF93DF93EF93FF93A091C702B091C802FA
S11305100DB60D920EB60D9213BE1DD781110E9419
S1130520AA0BA091C702B091C802CD91CDBFDD91B5
S1130530DEBFFF91EF91DF91CF91BF91AF919F917A
S11305408F917F916F915F914F913F912F911F9167
S11305500F91FF90EF90DF90CF90BF90AF909F905E
S11305608F907F906F905F904F903F902F901F904F
S11305700F900CBE0F900BBE0F900FBE0F900895FE
S11305809BDF1895DC0151962C915197222341F061
S11305905696ED91FC915797908184E0891B0895BC
S11305A080E008950FB6F8940F92FC01828D8111BA
S11305B002C081E001C080E00F900FBE08950FB625
S11305C0F8940F92FC01228D838D281302C081E0E0
S11305D001C080E00F900FBE08950F931F93CF9337
S11305E0DF93EC01042F1A8D4C8D41110CC08881CE
S11305F09981892B09F042C08C819D810E947C0ED7
S11306001D821C8242C0011117C050E08A819B8167
S11306100E94301F2C8D8A819B81820F911D9B83A8
S11306208A832C813D818217930750F188819981B7
S11306309B838A8380E029C050E08E819F810E9441
S1130640301F8C8D90E09195819591092E813F8189
S1130650280F391F3F832E8348815981241735077A
S113066030F42C813D81820F931F9F838E8302304F
S113067049F4112349F0115080E007C080E005C01F
S113068080E003C080E001C080E01F5F1A8FDF912B
S1130690CF911F910F910895FC01448D4423A9F03B
S11306A050E026813781240F351F378326838481C8
S11306B095812817390720F080819181978386835B
S11306C0CB01668177810C94301F08951F93CF93DB
S11306D0DF93EC010FB6F8940F921E8D0BC089893D
S11306E0882351F0CE0141960E94D00C81110E94C2
S11306F0D60D115011169CF38FEF8E8F0F900FBEF5
S11307000FB6F8940F921D8D0BC08885882351F085
S1130710CE0108960E94D00C81110E94D60D115072
S113072011169CF38FEF8D8F0F900FBEDF91CF9139
S11307301F910895CF93DF93EC010FB6F8940F92B5
S1130740E881F9818B8D2C8D90E030E0829FA001AF
S1130750839F500D929F500D11244E0F5F1F5D8398
S11307604C831A8EFB83EA830197289FA001299F5B
S1130770500D389F500D1124CF01840F951F9F8376
S11307808E838FEF8D8F8E8F61110BC088858823A8
S113079071F0CE0108960E94D00C882341F02BDE24
S11307A006C0CE01089647DDCE01419644DD0F9088
S11307B00FBE81E0DF91CF9108950F931F93F8014D
S11307C0611103C01183008302C051834083838F6E
S11307D0648F61E0CF01AEDF1F910F910895DF9226
S11307E0EF92FF920F931F93CF93DF93F82EE62E91
S11307F0D42E869FC00111244F96FBDCEC01009798
S113080041F08C012D2DAC01415E5F4F6E2D8F2D7B
S1130810D4DFCE01DF91CF911F910F91FF90EF9024
S1130820DF900895CF92DF92EF92FF920F931F9380
S1130830CF93DF9300D01F921F92CDB7DEB78C0108
S11308407B015D834C83C22ED12C0FB6F8940F929A
S1130850F801928D838D981718F0F2E0CF1216C02C
S11308604C2DB701C801B9DEF8019189992341F0F3
S1130870C80141960E94D00C882321F0BCDD02C03F
S11308808111B9DD0F900FBE81E043C08C819D8141
S1130890892B21F40F900FBE80E03BC0D11006C01D
S11308A0CE0101960E948D0DDD24D3940F900FBECE
S11308B042D50FB6F8940F92F801858D8F3F09F455
S11308C0158EF801868D8F3F09F4168E0F900FBE9A
S11308D0BE016C5F7F4FCE0101960E94980D81117D
S11308E014C0C8016CDE882361F06C817D81C8016D
S11308F00896FDD7C801EADE47D68111A6CF7BDD75
S1130900A4CFC801E3DE40D6A0CFC801DFDE3CD6C9
S113091080E00F900F900F900F900F90DF91CF9188
S11309201F910F91FF90EF90DF90CF900895009763
S113093061F0FC011582148211821082168220E07B
S113094040E050E060E070E06DCF0895CF93DF9316
S1130950482F60E081E043DFEC01E9DFCE01DF9165
S1130960CF910895EF92FF920F931F93CF93DF934C
S11309708A01FC01528D338D531710F02230F9F4A3
S1130980422F7801EC011E8D8A8DCE0126DE1F3F99
S113099081F489898823A9F0CE0141960E94D00C64
S11309A0882389F0E114F10481F081E0F701808368
S11309B00DC0FF24F394F10EFE8E81E007C080E0A9
S11309C005C081E003C081E001C081E0DF91CF91E7
S11309D01F910F91FF90EF900895CF92DF92EF92C5
S11309E0FF920F931F93CF93DF9300D01F921F9218
S11309F0CDB7DEB78C016B015D834C83E12C0FB660
S1130A00F8940F92F801F28CFF2091F0B601C8011E
S1130A1043DEFA94F801F28E8085882329F0C80118
S1130A200896BED78111E7DC0F900FBE81E048C065
S1130A308C819D81892B21F40F900FBE80E040C0F2
S1130A40E11006C0CE0101960E948D0DEE24E394C0
S1130A500F900FBE70D40FB6F8940F92F801858DE5
S1130A608F3F09F4158EF801868D8F3F09F4168E99
S1130A700F900FBEBE016C5F7F4FCE0101960E94A6
S1130A80980D811114C0C8018DDD882361F06C813B
S1130A907D81C80141962BD7C80118DE75D5811117
S1130AA0AECFA9DCACCFC80111DE6ED5A8CFC8018A
S1130AB00DDE6AD5C80176DD882309F4A0CF80E075
S1130AC00F900F900F900F900F90DF91CF911F9187
S1130AD00F91FF90EF90DF90CF900895EF92FF92E7
S1130AE00F931F93CF93DF9300D01F921F92CDB724
S1130AF0DEB78C017D836C83E12CF12C0FB6F89466
S1130B000F92F801828D8823C1F08150828F8081F9
S1130B109181892B29F40E94520FF80195838483D3
S1130B20F8018085882329F0C801089639D78111F6
S1130B3062DC0F900FBE81E066C08C819D81892BA1
S1130B4021F40F900FBE80E05EC0F11005C0CE010D
S1130B500196E3D7FF24F3940F900FBEECD30FB6A6
S1130B60F8940F92F801858D8F3F09F4158EF801E2
S1130B70868D8F3F09F4168E0F900FBEBE016C5FF9
S1130B807F4FCE010196D4D7811123C0C8010ADD5D
S1130B908823D9F0F80180819181892B51F40FB613
S1130BA0F8940F92848195810E94E80DE82E0F90AD
S1130BB00FBE6C817D81C801419699D6C80186DD3E
S1130BC0E3D481119BCF17DC99CFC8017FDDDCD43E
S1130BD095CFC8017BDDD8D4C801E4DC882309F4AF
S1130BE08DCFEE2079F00FB6F8940F92C801CADCCD
S1130BF0682FF801848195810E94DF0E0F900FBE4B
S1130C0080E001C080E00F900F900F900F900F9044
S1130C10DF91CF911F910F91FF90EF900895CF93A3
S1130C20DF93EC010FB6F8940F928D8D8F3F09F48A
S1130C301D8E8E8D8F3F09F41E8E0F900FBE8A8DF0
S1130C40811103C0CE01419663D6CE013FDDDF9111
S1130C50CF910895FC01228533852157324059F400
S1130C60FC0184899589F2E084389F0731F0892B4F
S1130C7031F080E0089580E0089580E0089581E0F7
S1130C800895E0918F02F09190028081811107C054
S1130C908FEF9FEF90936602809365020895E09131
S1130CA08F02F09190020580F681E02D8081918180
S1130CB090936602809365020895CF93DF93EC01CD
S1130CC08F89988DA9DACE01A7DADF91CF910895A3
S1130CD04F925F926F927F928F929F92AF92BF9248
S1130CE0CF92DF92EF92FF920F93CF93DF932C0179
S1130CF05B014A013901E60165EA70E08F89988D4C
S1130D000E94391F8F89988D21E0821A9108880EDC
S1130D10991EA114B10489F415C0822F90E0F50145
S1130D20E80FF91F3081DE01A80FB91F59963C93D3
S1130D308081882329F02F5F01C020E0283068F3E8
S1130D4018A201C0198E043008F003E00E8B09A329
S1130D501AA2CE0102967DDACE010C967ADAD987F0
S1130D60C88784E090E0801B91099D878C87DB8B8A
S1130D70CA8B84E0FE01B396DF011D928A95E9F7E0
S1130D801FA2A301B201C401EDDA99838883E1149F
S1130D90F10419F0F701D183C083DF91CF910F9152
S1130DA0FF90EF90DF90CF90BF90AF909F908F9087
S1130DB07F906F905F904F900895CF93C0E00FC0E5
S1130DC08C2F90E09C01220F331F220F331F220F20
S1130DD0331F820F931F8D559D4F2DDACF5FC43083
S1130DE078F38AE992E027DA81E992E024DA84E868
S1130DF092E021DA8BE792E01EDA81E792E01BDAD7
S1130E008AE992E09093900280938F0281E992E0C4
S1130E1090938E0280938D02CF910895CF93DF93A8
S1130E20EC010FB6F8940F92809170028F5F80935B
S1130E3070028091C7029091C802892B51F4D0931B
S1130E40C802C093C70280917002813091F4B5DF6B
S1130E5010C080916C0281110CC0E091C702F09126
S1130E60C80296898E89891720F0D093C802C0934E
S1130E70C702809167028F5F809367028E89909189
S1130E806D02981710F480936D0290E0FC01EE0F50
S1130E90FF1FEE0FFF1FEE0FFF1F8E0F9F1FFC01A2
S1130EA0ED55FD4F0180F281E02DFD83EC838481BB
S1130EB095819F838E83A481B581CE01029613967A
S1130EC09C938E93129795838483EE89F0E0CF01EF
S1130ED0880F991F880F991F880F991FE80FF91F12
S1130EE0ED55FD4FFB87EA8780818F5F80830F90EC
S1130EF00FBE80916C02882349F0E091C702F09103
S1130F00C80296898E89981708F475DADF91CF9113
S1130F100895CF93DF931AC00FB6F8940F92E0911F
S1130F208002F0918102C681D781CE010296E7D971
S1130F308091700281508093700280917A02815076
S1130F4080937A020F900FBECE01B7DE80917A02B1
S1130F508111E2CFDF91CF910895FF920F931F93F8
S1130F60CF93DF93EC01F62E00916E0210916F0285
S1130F708091C7029091C8020296C1D9CF3F8FEFEA
S1130F80D807B1F5FF20A1F1E1E7F2E0A181B28138
S1130F90C091C702D091C802BD83AC83C091C7027F
S1130FA0D091C80214968D919C9115979F838E833E
S1130FB01496CD91DC9115978091C7029091C80247
S1130FC002969B838A838091C7029091C8020296FD
S1130FD015969C938E931497A091C702B091C80262
S1130FE01B96FC93EE931A9780818F5F80832DC0AC
S1130FF0C00FD11FE091C702F091C802D383C2830E
S1131000C017D10760F46091C7027091C802809143
S11310108D0290918E026E5F7F4F40D916C0609111
S1131020C7027091C80280918F02909190026E5F06
S11310307F4F34D98091650290916602C817D90711
S113104020F4D0936602C0936502DF91CF911F9183
S11310500F91FF9008952F923F924F925F926F925B
S11310607F928F929F92AF92BF92CF92DF92EF9234
S1131070FF920F93CF93DF933C011B014A01290197
S1131080CA01B7D86C01892B61F088E290E0B1D82D
S1131090EC01892B19F0D88ECF8A05C0C601BCD8C3
S11310A002C0C0E0D0E0209761F0A12CB12C6E0109
S11310B09201A401B101C3010BDECE01AFDE81E0D8
S11310C001C08FEFDF91CF910F91FF90EF90DF90F0
S11310D0CF90BF90AF909F908F907F906F905F90D4
S11310E04F903F902F9008950F931F93CF93DF93CA
S11310F0EC010FB6F8940F92892B21F4C091C7022A
S1131100D091C8028E010E5F1F4FC801F8D88C8998
S11311109D89892B19F0CE010C96F1D88091670234
S11311208F5F809367028091C7029091C802C817AD
S1131130D90751F4B8018BE792E08FD880917A02F5
S11311408F5F80937A0208C08091700281508093EF
S11311507002CE01B2DD95DD0F900FBE80916C025E
S1131160882341F08091C7029091C802C817D9071B
S113117009F441D9DF91CF911F910F9108952091E6
S1131180C7023091C8028217930709F438C00FB61A
S1131190F8940F92FC012285338540918F0250917F
S11311A0900260918D0270918E020F900FBE2417F1
S11311B0350739F12617370731F1F2E021373F07B8
S11311C0B1F4FC0124893589232B61F082E0089570
S11311D0FC01E20FF11D27FDFA9537A13130A9F08A
S11311E02F5F01C020E012169CF783E00895F2E01F
S11311F02B373F0761F0232B61F484E0089580E0EE
S1131200089582E0089582E0089582E0089584E0DC
S1131210089581E008950F931F93CF93DF93209156
S1131220C7023091C8028217930709F452C000978D
S113123009F44FC0EC010FB6F8940F920BDD88232C
S113124009F445C08E010E5F1F4FC80158D88E891E
S113125090916D02981710F480936D0290E0FC0158
S1131260EE0FFF1FEE0FFF1FEE0FFF1F8E0F9F1FCE
S1131270FC01ED55FD4F0180F281E02DFD83EC83EF
S1131280848195819F838E83A481B58113961C9359
S11312900E93129715830483EE89F0E0CF01880F33
S11312A0991F880F991F880F991FE80FF91FED5593
S11312B0FD4FFB87EA8780818F5F80839E89E09161
S11312C0C702F091C8028689981708F094D80F9045
S11312D00FBEDF91CF911F910F910895EF92FF926E
S11312E00F930F2EF3E6EF2EF2E0FF2EF02D00E029
S11312F020E030E040EC50E067E072E08CE790E002
S1131300AADE813009F44DD6813079F4F8948FEF58
S11313109FEF909366028093650281E080936C0254
S113132010926F0210926E0234D8809106020F91CF
S1131330FF90EF900895809162028F5F8093620224
S113134008950FB6F8940F9280916E0290916F02F7
S11313500F900FBE08950F931F93CF93DF93809147
S11313606202811100C1C0916E02D0916F028E01A0
S11313700F5F1F4F10936F0200936E02011511054A
S1131380B1F480918F029091900220918D0230915E
S11313908E023093900220938F0290938E0280935A
S11313A08D02809168028F5F809368026ADC80916D
S11313B06502909166020817190720F480E0B8C00E
S11313C081E001C080E0E0918F02F0919002908171
S11313D0911107C02FEF3FEF30936602209365020F
S11313E0A7C0E0918F02F09190020580F681E02D74
S11313F00680F781E02D228133810217130728F438
S1131400309366022093650293C0A285B38524813C
S1131410358146815781E9015D834C83268137817B
S113142044815581E9015B834A8311962D913C9156
S11314301297AF014E5F5F4F2417350731F42681B1
S1131440378112963C932E931197138612869C91A2
S113145091509C93A489B589109719F126853785F5
S113146060897189E9017D836C832089318966856E
S11314707785E9017B836A8311966D917C9112973C
S11314809F01245F3F4F6217730731F4208931892C
S113149012963C932E931197158A148A9C9191501D
S11314A09C93268990916D02921710F420936D02FB
S11314B030E0D901AA0FBB1FAA0FBB1FAA0FBB1F85
S11314C02A0F3B1FD901AD55BD4F11960D90BC910C
S11314D0A02DB583A48314962D913C911597378341
S11314E0268314962D913C911597E9015B834A83D9
S11314F015965C934E931497A689B0E09D01220F34
S1131500331F220F331F220F331FA20FB31FAD55FA
S1131510BD4FB387A2879C919F5F9C932689E091DE
S1131520C702F091C8029689291708F049CF4BCF1A
S1131530E091C702F091C802268930E0F901EE0F6C
S1131540FF1FEE0FFF1FEE0FFF1F2E0F3F1FF901AE
S1131550ED55FD4F9081923008F081E09091690241
S113156091110CC00CC080916A0290916B0201969B
S113157090936B0280936A0280E001C081E0DF9166
S1131580CF911F910F910895CF93DF930FB6F894E5
S11315900F92809162028150809362028091620274
S11315A08111BDC080917002811196C0BBC0E091D1
S11315B08902F0918A020680F781E02DA489B58919
S11315C0C685D785808991899D838C83C089D1897B
S11315D0868597859B838A8311962D913C911297DA
S11315E0CF010C962817390731F480899189129616
S11315F09C938E931197158A148A8C9181508C93A5
S1131600A285B385C481D581868197819D838C838E
S1131610C681D781848195819B838A8311968D911C
S11316209C9112979F012E5F3F4F8217930731F4CD
S11316308681978112969C938E93119713861286B6
S11316408C9181508C93868990916D02981710F437
S113165080936D0290E0DC01AA0FBB1FAA0FBB1F91
S1131660AA0FBB1F8A0F9B1FDC01AD55BD4F1196FE
S11316700D90BC91A02DB583A48314968D919C915B
S11316801597978386831496CD91DC9115973B83A8
S11316902A8315963C932E931497A689B0E0CD0126
S11316A0880F991F880F991F880F991FA80FB91FBA
S11316B0AD55BD4FB387A2878C918F5F8C9396896C
S11316C0A091C702B091C80256968C91981730F039
S11316D081E08093690202C0E0E0F0E0809184023E
S11316E0811165CFEF2B09F0CCDAC0916A02D09159
S11316F06B02209761F02FDE882319F081E080933C
S113170069022197C1F710926B0210926A028091CC
S11317106902882331F00E94FB0181E003C080E06C
S113172001C080E00F900FBEDF91CF910895CF9359
S1131730DF93EC01892B31F0FEDD60E0CE010DDC9E
S113174023DF01C080E0811102C00E94FB01DF9110
S1131750CF91089580916202882321F081E08093E3
S11317606902089510926902E091C702F091C802DB
S113177020813181E091C702F091C8028789908D60
S11317808217930758F06091C7027091C802675E90
S11317907F4F8091C7029091C802EED520916D02CF
S11317A001C02150822F90E0FC01EE0FFF1FEE0FCD
S11317B0FF1FEE0FFF1FE80FF91FED55FD4F30819E
S11317C0332379F3AC01440F551F440F551F440FC5
S11317D0551F480F591FDF010180F281E02D02805F
S11317E0F381E02D1296FC93EE9311974A555D4FC9
S11317F0E417F50729F442815381FD0152834183A3
S1131800FC01EE0FFF1FEE0FFF1FEE0FFF1F8E0FE9
S11318109F1FFC01ED55FD4F0180F281E02D868173
S113182097819093C8028093C70220936D02089514
S11318300F931F93CF93DF93EC010FB6F8940F929D
S1131840892B21F4C091C702D091C8028E010E5F8A
S11318501F4FC8010E947F018C899D89892B21F02B
S1131860CE010C960E947F01B80181E792E00E94AC
S11318702D0180E00FC0282F082E000C330BFE0131
S1131880E20FF31F97A1913021F4FE01E20FF31F41
S113189017A28F5F18167CF70F900FBE80916C0211
S11318A0882331F00FB6F8940F92EBD90F900FBE46
S11318B08091C7029091C802C817D90799F4809102
S11318C06C02882319F00E94FB010CC090917102F4
S11318D080917002981305C01092C8021092C7023A
S11318E001C038DFDF91CF911F910F910895CF93FD
S11318F0DF93EB016091C7027091C802645F7F4F70
S11319000E944E0161E0CE0128DBDF91CF91089562
S11319100F931F93CF93DF93FC018B01A181B281BD
S11319208091C7029091C802EC01BF87AE87809175
S1131930C7029091C80214962D913C911597EC0121
S1131940398B288B14968D919C9115972091C70201
S11319503091C802245F3F4FEC013B832A832091DE
S1131960C7023091C802245F3F4F15963C932E93D3
S11319701497A091C702B091C8025596FC93EE93B8
S1131980549790819F5F9083442311F00FEF1FEFD2
S1131990642FC801E2DADF91CF911F910F9108956E
S11319A0CF93DF93DC011596ED91FC911697068099
S11319B0F781E02DA489B589C685D7858089918969
S11319C09D838C83C089D189868597859B838A83EF
S11319D011968D919C9112979F01245F3F4F82171E
S11319E0930731F48089918912969C938E93119771
S11319F0158A148A8C9181508C9380916202811192
S1131A0060C0A285B385C481D581868197819D8379
S1131A108C83C681D781848195819B838A83119627
S1131A208D919C9112979F012E5F3F4F82179307D0
S1131A3031F48681978112969C938E931197138625
S1131A4012868C9181508C93868990916D0298179F
S1131A5010F480936D0290E0DC01AA0FBB1FAA0F63
S1131A60BB1FAA0FBB1F8A0F9B1FDC01AD55BD4FC7
S1131A7011960D90BC91A02DB583A48314968D91DD
S1131A809C911597978386831496CD91DC91159735
S1131A903B832A8315963C932E931497A689B0E032
S1131AA0CD01880F991F880F991F880F991FA80FC0
S1131AB0B91FAD55BD4FB387A2878C918F5F8C93AF
S1131AC01CC044E852E0DA011196CD91DC911297E2
S1131AD0D787C6878C819D81918B808B8C819D81DA
S1131AE0DC0113963C932E9312973D832C83558BE4
S1131AF0448BDA018C918F5F8C939689E091C702B5
S1131B00F091C8028689891720F481E080936902E4
S1131B1001C080E0DF91CF91089520916802FC011B
S1131B20208320916E0230916F02328321830895C5
S1131B301F93CF93DF930FB6F8940F92E0916E0248
S1131B40F0916F02DC0111964D915C911297DF01C7
S1131B50A41BB50BEB01288139812F3FDFEF3D0733
S1131B60F1F0EC011881C09168021C1741F0E417F0
S1131B70F50728F0FB011182108281E011C0A21741
S1131B80B30740F4FB012A1B3B0B31832083C5DFE1
S1131B9080E006C0DB011D921C9281E001C080E060
S1131BA00F900FBEDF91CF911F91089581E0809334
S1131BB06902089580916C02882331F08091620259
S1131BC0811104C082E0089581E0089580E00895C1
S1131BD00F931F93CF93DF93FC01892B09F484C0E7
S1131BE02689A091C702B091C80256968C912817F5
S1131BF008F070C084859585992364F0A091C7028C
S1131C00B091C80256963C9184E090E0831B910900
S1131C10958784878285938530E0A901440F551FF9
S1131C20440F551F440F551F240F351F2D553D4F8D
S1131C308217930709F045C0EF018F010E5F1F4F14
S1131C40C8010E947F01E091C702F091C802868911
S1131C508E8B90916D02981710F480936D0290E032
S1131C60FC01EE0FFF1FEE0FFF1FEE0FFF1F8E0F85
S1131C709F1FFC01ED55FD4F0180F281E02DFD8396
S1131C80EC83848195819F838E83A481B58113968F
S1131C901C930E931297158304838E8990E0FC01A4
S1131CA0EE0FFF1FEE0FFF1FEE0FFF1FE80FF91FD0
S1131CB0ED55FD4FFB87EA8780818F5F808381E04C
S1131CC016C0A091C702B091C80256968C91868B1B
S1131CD081E00DC091A1E091C702F091C80286890C
S1131CE0981720F080E003C080E001C081E0DF911C
S1131CF0CF911F910F9108950F931F93CF93DF936B
S1131D00FC01892B09F451C082A1815082A3268948
S1131D1091A1291709F44BC081114BC0EF018F0128
S1131D200E5F1F4FC8010E947F0189A18E8B24E0A2
S1131D3030E0281B31093D872C8790916D0298175C
S1131D4010F480936D0290E0FC01EE0FFF1FEE0F84
S1131D50FF1FEE0FFF1F8E0F9F1FFC01ED55FD4F60
S1131D600180F281E02DFD83EC83848195819F8342
S1131D708E83A481B58113961C930E9312971583B9
S1131D800483EE89F0E0CF01880F991F880F991F13
S1131D90880F991FE80FF91FED55FD4FFB87EA8760
S1131DA080818F5F808381E005C080E003C080E094
S1131DB001C080E0DF91CF911F910F9108950F939F
S1131DC01F93CF93DF93FC01892B09F466C091A183
S1131DD0961708F4962F8689981709F45EC022A1F5
S1131DE0213009F05AC0968B24853585332334F08D
S1131DF024E030E0291B3109358724872285338587
S1131E0090E0AC01440F551F440F551F440F551F5C
S1131E10840F951F8D559D4F28173907F1F5EF0154
S1131E208F010E5F1F4FC8010E947F018E89909120
S1131E306D02981710F480936D0290E0FC01EE0F90
S1131E40FF1FEE0FFF1FEE0FFF1F8E0F9F1FFC01E2
S1131E50ED55FD4F0180F281E02DFD83EC838481FB
S1131E6095819F838E83A481B58113961C930E93D1
S1131E701297158304838E8990E0FC01EE0FFF1FF7
S1131E80EE0FFF1FEE0FFF1FE80FF91FED55FD4F7B
S1131E90FB87EA8780818F5F8083DF91CF911F91D9
S1131EA00F9108958091C7029091C802892B39F04F
S1131EB0E091C702F091C80282A18F5F82A3809152
S1131EC0C7029091C8020895DC01E091D102F0911B
S1131ED0D202808191E0811190E09C93911106C01F
S1131EE00580F681E02D80819181089580E090E065
S1131EF00895FC017383628391878087461757078F
S1131F0090F0421B530B8485958548175907E0F4DC
S1131F10BF016E5F7F4F8091CF029091D0020E94EB
S1131F204E0180E008954217530718F462177307AF
S1131F3068F4BF016E5F7F4F8091D1029091D2020D
S1131F400E944E0180E0089581E0089581E00895A3
S1131F500FB6F8940F928091CD029091CE02892B06
S1131F60E9F48CED92E00E941B0183ED92E00E9463
S1131F701B018CED92E09093D2028093D10283ED09
S1131F8092E09093D0028093CF0240E065E08AE033
S1131F900E94EF039093CE028093CD020F900FBE68
S1131FA00895EF92FF920F93D3DF8091CD02909129
S1131FB0CE02892B89F00F2EFBECEF2EF2E0FF2EE0
S1131FC0F02D03E020E030E045E550E06CE072E005
S1131FD083E890E040D801C080E00F91FF90EF903B
S1131FE008950F931F93CF93DF9300D01F921F92F6
S1131FF0CDB7DEB7E091CD02F091CE02309769F112
S1132000D90169835B834A839D838C836630E4F4BE
S1132010D1DD823061F420E0A801BE016F5F7F4F03
S11320208091CD029091CE020E94120417C020E04C
S113203040E050E0BE016F5F7F4F8091CD029091F0
S1132040CE020E9412040AC020E0AD01BE016F5FFF
S11320507F4FCF010E94B20401C080E00F900F9027
S11320600F900F900F90DF91CF911F910F910895D2
S1132070EF92FF920F931F93CF93DF932FC00580AE
S1132080F681E02DE080F180C681D7818E010E5F5C
S11320901F4FC8010E947F01E889F989CE01199573
S11320A08A8982FF1BC08C859D858E0D9F1DE81635
S11320B0F90660F49B838A83D987C887B801809125
S11320C0D1029091D2020E944E0108C000E010E0BB
S11320D020E030E0A70160E0CE0183DFE091D1028F
S11320E0F091D20280818111CACF8091CF02909168
S11320F0D0029093D2028093D102F093D002E09365
S1132100CF02DF91CF911F910F91FF90EF9008952F
S11321100F931F93CF93DF938C0113D9EC0180911C
S1132120C9029091CA02C817D90728F4A1DF81E037
S1132130F801808302C0F8011082D093CA02C093D0
S1132140C902CE01DF91CF911F910F910895EF92B3
S1132150FF920F931F93CF93DF937C018B01E09148
S1132160D102F091D2020580F681E02DC681D7819B
S1132170CE0102960E947F018A8982FF13C06C857A
S11321807D856E0D7F1D9701A801CE01B2DE8823E7
S113219059F000E010E020E030E0A70160E0CE015B
S11321A020DF02C08E7F8A8BE889F989CE011995D8
S11321B0DF91CF911F910F91FF90EF900895CF92EF
S11321C0DF92EF92FF921F93CF93DF931F92CDB7CD
S11321D0DEB77C01162FAFD8CE01019699DF6C01D2
S11321E08981811124C0111108C0CE14DF0428F0A4
S11321F0CBD9B601C701ABDF1BC0112341F0E0917D
S1132200CF02F091D002808111E0811110E0B7017A
S11322106C197D09412F8091CD029091CE020E94CC
S11322200F06B2D9811104C00E94FB0101C0ACD9D0
S11322300F90DF91CF911F91FF90EF90DF90CF909F
S11322400895EF92FF920F931F93CF93DF9300D0E3
S113225000D0CDB7DEB76CC0898188230CF468C088
S1132260EC80FD80D7011A968D919C911B97892B48
S113227021F0C70102960E947F01CE01069648DF35
S1132280AC01E9810E2E000CFF0BEA30F10508F0D9
S11322904FC08827EE58FF4F8F4F0C94E41DF70171
S11322A082898160828B2A813B8164857585620F76
S11322B0731FC7011EDE8823D9F1D7015096ED9113
S11322C0FC915197C7011995F701828982FF30C0AB
S11322D04A815B8184859585480F591F00E010E091
S11322E020E030E060E0C7017CDE22C0D7015296D6
S11322F08C9152978E7F52968C931AC0F7018289E3
S11323008160828B6A817B8175876487640F751F06
S11323109A01C701EEDD0CC0D70152968C9181FD64
S113232004C0C7010E940C0103C08E7FF701828B99
S113233040E050E0BE016F5F7F4F8091CD029091ED
S1132340CE020E94ED04811187CF26960FB6F89431
S1132350DEBF0FBECDBFDF91CF911F910F91FF90D4
S1132360EF900895279A2F9A83ED90E30197F1F760
S113237000C000001F9AF8CF279A2F9A2FE78AE10E
S113238096E0215080409040E1F700C000001F9A81
S1132390F5CF689AE1E0F1E080818863808384B1BD
S11323A0806F84B982E08093200191E090932101B1
S11323B020E83EE3309329012093280180937300A1
S11323C088E680937C00EAE7F0E08081806880837F
S11323D08081806480838FEF80937E008CEF809374
S11323E07F000895EF92FF920F93D3DF41E062E400
S11323F084E067D781E00E94A6049093E60280936C
S1132400E50220E040E050E060E070E00E94120449
S113241084E090E0909355038093540381EFE82E79
S113242082E0F82E00E020E030E040E051E064E19A
S113243072E080EB96E10E942B089FEEE92E92E079
S1132440F92E03E020E030E040E051E06AE172E080
S11324508BED97E10E942B082BEEE22E22E0F22E68
S113246000E020E030E040E051E066E272E08EEC13
S11324709AE10E942B0837EEE32E32E0F32E01E0BE
S113248020E030E040E051E06DE272E084E29BE164
S11324900E942B0849EEE42E42E0F42E00E020E0F6
S11324A030E040E051E068E272E081E69AE10E94A7
S11324B02B085DEEE52E52E0F52E02E020E030E040
S11324C040E051E063E372E080E792E10E942B0870
S11324D00E946E0980E090E00F91FF90EF900895C4
S11324E0C0E0D0E03DC0EC0180E03ED79E01205B1F
S11324F03F4F8217930708F442C083E693E00E949B
S1132500C700653671058105910538F183E693E0CE
S11325100E94F6008091F3028F5F8093F302809112
S11325205403909155038130910509F46BC008F46C
S11325304AC08230910541F1049779F48091ED020B
S11325409091EE020E94BF08833039F08091ED0231
S11325509091EE02009709F06BD981E090E0E7D802
S113256070D0009709F0BFCF80E0FED69E01205BBB
S11325703F4F8217930718F0209709F0BECF83E6E8
S113258093E00E94C700E9CF8091F4029091F50294
S1132590009749F00E9474081092F5021092F40218
S11325A081E090E0C4D884EFE82E82E0F82E03E0C6
S11325B023EF32E040E850E060E572E080E596E128
S11325C00E942B08CACF8091F8029091F9020097DB
S11325D049F00E9474081092F9021092F80281E006
S11325E090E0A5D828EFE22E22E0F22E03E023EFBC
S11325F032E040E850E068E372E085EF95E10E9444
S11326002B08ABCF8091F6029091F702009749F026
S11326100E9474081092F7021092F60281E090E092
S113262086D896EFE92E92E0F92E03E023EF32E00C
S113263040E850E064E472E08AE396E10E942B08EB
S11326408CCF80E091D620910003309101032817AC
S1132650390720F490930103809300038CE793E0FF
S11326600E94C700643171058105910540F52091F0
S1132670FA023091FB0222333105F0F040E050E0E1
S11326806091FC027091FD028091FE029091FF0224
S11326900E94C21D1092FC021092FD021092FE02D2
S11326A01092FF021092FB021092FA0210920103A0
S11326B010920003C901089580E090E008952091EC
S11326C00003309101038091FC029091FD02A091DE
S11326D0FE02B091FF02820F931FA11DB11D8093D2
S11326E0FC029093FD02A093FE02B093FF0280913E
S11326F0FA029091FB0201969093FB028093FA02F6
S113270010920103109200038CE793E00E94F600FC
S1132710AECF8091F8029091F902009751F00E9497
S113272074081092F9021092F80281E090E00E947D
S1132730970B8091F6029091F702009751F00E9456
S113274074081092F7021092F60281E090E00E9461
S1132750970B8091F4029091F502009751F00E943A
S113276074081092F5021092F40281E090E00E9445
S1132770970B80E090E00C94970BCF92DF92EF924E
S1132780FF92CF93DF93C4E5D3E06A817B81072E68
S1132790000C880B990B0E94981C6B017C016885C6
S11327A07985072E000C880B990B0E94981C9B01BD
S11327B0AC01C701B6010E94281D20E030E04FE7BC
S11327C053E40E94021C0E946A1C462F62E484E0C7
S11327D0DDD56C817D81072E000C880B990B0E943E
S11327E0981C6B017C0168857985072E000C880B89
S11327F0990B0E94981C9B01AC01C701B6010E9471
S1132800281D20E030E04FE753E4FCD70E946A1C07
S1132810462F62E485E0BAD56E817F81072E000CD5
S1132820880B990B0E94981C6B017C016885798543
S1132830072E000C880B990B0E94981C9B01AC017D
S1132840C701B6010E94281D20E030E04FE753E4A1
S1132850D9D70E946A1C462F62E486E0DF91CF91AB
S1132860FF90EF90DF90CF9091C5CF9386E593E0F2
S11328700E94A71EE0914403F09145038081918159
S11328809093570380935603828180935803C5E045
S113289040E062E484E015D540E062E485E011D5CF
S11328A040E062E486E00DD587E090E00E94970B5B
S11328B041E062E484E005D541E062E485E001D5CD
S11328C041E062E486E0FDD487E090E00E94970B4B
S11328D0C150F1F6CF910895EF92FF920F931F9399
S11328E0CF93DF93EC012CC06AE070E081E02E0FFF
S11328F03F1F3093570320935603AE0DBF1DB09373
S11329005903A0935803600F711F70935B03609386
S11329105A03513009F4E2C0413009F4CBC081308C
S113292009F4B4C05F3F09F499C04F3F09F47EC075
S11329308F3F09F463C021DF80E090E00E94970B91
S11329402091560330915703E881F0E0EE0FFF1F0A
S1132950EC5BFC4F0190F081E02D808190E0281722
S1132960390739F1618170E0A0915803B09159039E
S1132970821793073CF5828190E000915A031091ED
S11329805B03E6EFFFEF5FEF6A177B076CF446EF3C
S1132990E42EFF24FA944FEF801791070CF0A4CF94
S11329A066EF7FEF8FEFA3CF6AE0E62EF12C41E0D4
S11329B0F3CFA0915803B0915903618170E0A61739
S11329C0B70751F0828190E000915A0310915B03A4
S11329D0EAE0F0E051E0D8CF00915A0310915B0394
S11329E0828190E00817190709F48CC0EAE0F0E04E
S11329F051E07AE0E72EF12C41E0CECFE881F0E01F
S1132A00EE0FFF1FEC5BFC4F0190F081E02D828103
S1132A1090E020915A0330915B03281739070CF09A
S1132A208ACF90935B0380935A0385CFE881F0E0CB
S1132A30EE0FFF1FEC5BFC4F0190F081E02D218134
S1132A4030E04091580350915903421753070CF05A
S1132A506FCF30935903209358036ACFE881F0E095
S1132A60EE0FFF1FEC5BFC4F0190F081E02D208105
S1132A7030E06091560370915703621773070CF0AE
S1132A8054CF30935703209356034FCFE881F0E09F
S1132A90EE0FFF1FEC5BFC4F0190F081E02D2281D3
S1132AA030E0261737070CF03DCF30935B032093BB
S1132AB05A0338CFE881F0E0EE0FFF1FEC5BFC4FC8
S1132AC00190F081E02D218130E02A173B070CF0C2
S1132AD026CF309359032093580321CFE881F0E0A7
S1132AE0EE0FFF1FEC5BFC4F0190F081E02DE081C5
S1132AF0F0E0E217F3070CF00FCFF0935703E093E5
S1132B0056030ACFDF91CF911F910F91FF90EF9061
S1132B100895FF920F931F93CF93DF93F82E98E0BD
S1132B208902E0011124262F30E0AEE3B0E00E94D8
S1132B30EC1D28EE33E040E050E00E94C21D890104
S1132B4080915C0390915D031F144CF48F3F9105B9
S1132B504CF0DF91CF911F910F91FF9008951816BB
S1132B601906BCF78C0F9D1F97FD0FC08F3F910571
S1132B7019F014F08FEF90E090935D0380935C0361
S1132B80FCDDC8010E94970BDBCF80E090E0EECF24
S1132B908D55924019F120915403309155032430FE
S1132BA03105B9F0A9014F5F5F4F9A01ABEABAEA68
S1132BB00E94EC1D969587959C01220F331F820F6E
S1132BC0931F9A01281B390B309355032093540308
S1132BD0A0CD10925503109254039BCD84E090E055
S1132BE0909355038093540394CDCF93DF93EC01DA
S1132BF0A4E5B3E08FEF90E019969C938E93189719
S1132C00E881F0E0EE0FFF1FEC5BFC4F0190F081D8
S1132C10E02D808190E013969C938E931297E88127
S1132C20F0E0EE0FFF1FEC5BFC4F0190F081E02D14
S1132C30818190E015969C938E931497E881F0E03F
S1132C40EE0FFF1FEC5BFC4F0190F081E02D8281C1
S1132C5090E017969C938E9316976FE08FEF59DF51
S1132C601092F9021092F80280E090E0DF91CF9187
S1132C700C9474082091F4023091F502232B49F04E
S1132C802BDE1092F7021092F60280E090E00C9492
S1132C9074082FEF30E030935D0320935C03F0CF92
S1132CA02091F6023091F702232B71F067E081E066
S1132CB030DF67E08FEF2DDF1092F5021092F402FF
S1132CC080E090E00C947408DC01EC91F0E0EE0FED
S1132CD0FF1FEC5BFC4F0190F081E02D208130E080
S1132CE03093570320935603EC91F0E0EE0FFF1F4F
S1132CF0EC5BFC4F0190F081E02D218130E03093BA
S1132D00590320935803EC91F0E0EE0FFF1FEC5BA6
S1132D10FC4F0190F081E02D828190E090935B0361
S1132D2080935A03C3CF40E062E487E0CAD240E014
S1132D3068E483E0C6D21092930384E090E0909319
S1132D40550380935403089541E062E487E0B9D2C7
S1132D5041E068E483E0B5D281E080939303089571
S1132D6082E093E0A7D4882369F182E093E0A2D4BF
S1132D7081117FC06FEF7FEF8091E5029091E602B1
S1132D800E946E05813009F45FC08EE593E00E94D5
S1132D90C700603D77408105910520F0809197033D
S1132DA0882351F180919D0390919E03853E9C4020
S1132DB088F18CE090E00E94970B82E093E07AD453
S1132DC08111D3CF8DE693E00E94C7006F31710566
S1132DD08105910550F28091930381112DC08EE5F8
S1132DE093E00E94F60082E093E095D4882309F4EE
S1132DF0C1CF10929703BECF80919D0390919E0303
S1132E0087312DE09207D0F0209193032111CECF8A
S1132E109BDFC8CF8BE093E04DD48111CACF809162
S1132E209D0390919E03892B09F4C3CF8091930352
S1132E308111BFCF78DFBDCF76DFD1CF209194034E
S1132E40222309F4B3CFE0CF82E793E00E94C700C6
S1132E50653F71408105910588F420E040E050E031
S1132E6060E070E08091E5029091E6020E94120415
S1132E708CCF8DE693E00E94F6007CCF82E793E04E
S1132E800E94F60082E070D2BC0180E090E04ED552
S1132E9020918B0330918C0340918D0350918E03CC
S1132EA0D7D520E030EC4FE754E4ACD413D570937D
S1132EB09E0360939D03D1CFEBE0F3E084E486832B
S1132EC022E030E03583248310861782E2E0F3E0C9
S1132ED0868384E090E09583848310861782089526
S1132EE010921D0310921E0381E080932B03BDDC1E
S1132EF08FE193E00E94F6008FEF90E090935D03E2
S1132F0080935C036FE08FEF04DE8FE190E00E941A
S1132F10970B8091ED029091EE020E94BF088330DE
S1132F2009F008958091ED029091EE020097C9F3A3
S1132F300C940B090FB6F8940F92F5DE2FEF89EF7E
S1132F4090E0215080409040E1F700C000005F9A7B
S1132F508EE593E00E94F6002FEF89EF90E0215078
S1132F6080409040E1F700C0000081E0809394032A
S1132F700F900FBE08950FB6F8940F92D4DE2FEF82
S1132F8089EF90E0215080409040E1F700C00000BC
S1132F905F988EE593E00E94F6002FEF89EF90E0B2
S1132FA0215080409040E1F700C00000109294034B
S1132FB00F900FBE0895FF24F394CFEFD0E003E009
S1132FC010E02DC087E793E00E94F6008091930300
S1132FD0882321F080912B038823A9F18BE093E0CF
S1132FE069D3882309F46CC080919403811168C06B
S1132FF08FEF99EF20E0815090402040E1F700C02E
S1133000000098DF8FEF99EF20E08150904020403E
S1133010E1F700C0000081E090E00E94970B84E19A
S113302093E048D38111CECF87E793E00E94C70095
S1133030633371058105910548F210922B03809149
S11330409303882359F280911D03882309F456C001
S1133050813009F0C3CF8FE193E00E94C70061374C
S113306077418105910508F0B1C084E193E022D352
S1133070811186C08091290390912A03009709F455
S1133080ADCF843F914040F480911E0390E00196BF
S1133090B80165D580931E03D0935D03C0935C0390
S11330A08EE193E019DC84E293E00E94F600109232
S11330B02A03109229038BE093E0FCD2811194CF70
S11330C08BE093E0F7D28111A6CF809194038823FB
S11330D009F4A1CF8FEF99EF20E081509040204078
S11330E0E1F700C0000047DF8FEF99EF20E0815047
S11330F090402040E1F700C000008DCF84E293E0CF
S11331000E94C700693E73408105910578F1F092F1
S11331101D0310921E038FE193E00E94F60084E2E7
S113312093E00E94F6008091ED029091EE020E94DD
S1133130BF08833041F08091ED029091EE02009738
S113314011F00E94180CE5DA6FE08FEFE2DC8DDB02
S1133150D0935D03C0935C038EE193E0BDDB8CE010
S113316090E00E94970BF0922B0338CF84E193E018
S1133170A1D2811133CF84E293E00E94F6002ECFD6
S113318084E293E00E94C70070932A0360932903AA
S11331908FE193E00E94F6008091290390912A0325
S11331A0893E934008F41ACFF0922B0380911E03BA
S11331B0813031F168F08230F1F68DE592E0E8DC9F
S11331C08FDE84E293E00E94F60008CF89DE4DCFC3
S11331D0809198038F2580939803882389F38091A5
S11331E0EB029091EC020E94BF08833049F7809172
S11331F0EB029091EC02009719F30E940B09E0CFC7
S11332008BE092E0C5DC6CDE84E293E00E94F60081
S1133210E5CEEDE1F3E01082118215861486168660
S1133220E4E1F3E082E4868384E090E095838483A0
S11332301086178208951F920F920FB60F921124D1
S11332400BB60F928F939F93AF93BF93EF93FF931C
S1133250EBE8F3E084899589A689B7890196A11DD5
S1133260B11D848B958BA68BB78B10922501109280
S11332702401FF91EF91BF91AF919F918F910F9096
S11332800BBE0F900FBE0F901F901895623431F44F
S1133290853029F0863079F0843039F008958091B2
S11332A080008F738093800008958091B0008F73A5
S11332B08093B0000895809180008F7C809380007B
S11332C008951F93CF93DF93D82FC62F142FDEDFDB
S11332D0C43449F1C834A9F0C23421F0DF91CF914C
S11332E01F91089525B181E090E001C0880FDA951F
S11332F0EAF7112339F1822B85B9DF91CF911F9120
S113330008952091020181E090E001C0880FDA95D0
S1133310EAF7111125C08095822380930201DF9181
S1133320CF911F9108952BB181E090E001C0880FE7
S1133330DA95EAF7112369F0822B8BB9DF91CF91EB
S11333401F9108958095822385B9DF91CF911F91B4
S11333500895809582238BB9DF91CF911F910895B1
S1133360822B80930201BACF0FB6F8940F9280910A
S1133370E00080648093E00080917A0086FDFCCFB9
S11333800F900FBE8091790090E00895623481F42B
S113339094B121E030E0082E01C0220F0A94EAF72C
S11333A0292B24B9853029F08630B1F0843061F0BE
S11333B0089581E0809380008093B10050E05093A1
S11333C0890040938800089581E08093B000809341
S11333D0B1004093B300089589E28093800081E0B6
S11333E08093B10050E050938B0040938A0008957D
S11333F0EBE8F3E080E090E4ACE9B5E4808391830A
S1133400A283B38380E090E0A0EAB0E48483958350
S1133410A683B78310861186148681E08587168675
S11334201786108A118A138A128A148A158A168AB0
S1133430178AE4E5F3E01182108213821282158266
S113344014821782168211861086ECE2F3E08FEF65
S11334508083818382831382848315828683178287
S11334601086118612868387848785871686178639
S1133470808B818B828B138A848B858B84E1868BF2
S113348083E9878BF18FE08F8FE293E0938F828FB4
S113349082E393E0958F848F85E393E0978F868F03
S11334A088E393E091A380A38BE393E093A382A3A7
S11334B08EE393E095A384A381E493E097A386A38A
S11334C00895C1E027C080919503811102C0C09383
S11334D0950320E040E050E060E070E08091E50278
S11334E09091E6020E9412048091950381112CC0F0
S11334F080919703882369F1809196038823B1F121
S113350040E064E486E0DDDE1092960386E090E01D
S11335100E94970B6FEF7FEF8091E5029091E60296
S11335200E946E0580919D0390919E03863320E155
S1133530920748F6813A9F4060F68091950388236C
S113354041F210929503C5CF809196038823F1F23E
S1133550D7CF8BE093E0AED0811104C08091960365
S11335608111CECF809195038111D0CF8BE093E070
S1133570A1D0882359F2809197038111C7CF8091FC
S113358096038111C3CF8EE390E00E94970B41E034
S113359064E486E096DEC0939603B8CFC4E018C016
S11335A08BE093E087D0882389F180919603882368
S11335B029F18FE190E00E94970B85B18C2785B9A2
S11335C088E693E00E94F6008CE090E00E94970B5E
S11335D0809198038111E4CF2A988091EB02909115
S11335E0EC020E94BF08833079F38091EB02909142
S11335F0EC02009749F30E94180CE6CF2A9A8AEB52
S113360090E00E94970B10929803DECF88E693E037
S11336100E94C700683273428105910578F4809155
S11336209303882359F088E693E00E94C70061372A
S113363077418105910540F22A9AC6CF88E693E046
S11336400E94F6002A98C0CF84E791E00E94970B6D
S113365081E08ADEBC0180E090E068D120918B0398
S113366030918C0340918D0350918E03F1D120E071
S113367030EC4FE754E4C6D026E031E845E95DEB91
S1133680E7D126E031EC40E453E458D06093990349
S113369070939A0380939B0390939C0320E030E003
S11336A040E752E4D1D118167CF681E08093970369
S11336B03ADBCACFFC018681823429F1843489F053
S11336C0818127813085232B19F091E0892781831B
S11336D09081981729F091E0811117C0938310828B
S11336E0089589B121E030E0048002C0220F331F25
S11336F00A94E2F790E02823392381E01216130696
S11337003CF48183DECF83B1EDCF9283908308951F
S113371080E08183D6CFCF93DF93EC01CBDF898127
S1133720811106C08B8181111B82DF91CF91089595
S11337301B8280E0DF91CF9108955058BB27AA27C0
S11337400ED048C139D130F03ED120F031F49F3F42
S113375011F41EF42EC10EF4E095E7FB24C1E92F09
S11337604AD180F3BA17620773078407950718F0E4
S113377071F49EF562C10EF4E0950B2EBA2FA02DC4
S11337800B01B90190010C01CA01A0011124FF270A
S1133790591B99F0593F50F4503E68F11A16F04005
S11337A0A22F232F342F4427585FF3CF4695379504
S11337B02795A795F0405395C9F77EF41F16BA0BC9
S11337C0620B730B840BBAF09150A1F0FF0FBB1F77
S11337D0661F771F881FC2F70EC0BA0F621F731FC0
S11337E0841F48F4879577956795B795F7959E3F1D
S11337F008F0B3CF9395880F08F09927EE0F9795AB
S1133800879508950CD0E6C0DED040F0D5D030F0D6
S113381021F45F3F19F0C7C0511110C1CAC0EBD0E9
S113382098F39923C9F35523B1F3951B550BBB2783
S1133830AA2762177307840738F09F5F5F4F220F30
S1133840331F441FAA1FA9F333D00E2E3AF0E0E829
S113385030D091505040E695001CCAF729D0FE2F75
S113386027D0660F771F881FBB1F26173707480707
S1133870AB07B0E809F0BB0B802DBF01FF279358BD
S11338805F4F2AF09E3F510568F08DC0D7C05F3F5F
S1133890ECF3983EDCF3869577956795B795F795A5
S11338A09F5FC9F7880F911D9695879597F908959D
S11338B0E1E0660F771F881FBB1F62177307840739
S11338C0BA0720F0621B730B840BBA0BEE1F88F748
S11338D0E095089598D088F09F5790F0B92F9927D4
S11338E0B751A0F0D1F0660F771F881F991F1AF007
S11338F0BA95C9F712C0B13081F09FD0B1E00895F4
S11339009CC0672F782F8827B85F39F0B93FCCF374
S1133910869577956795B395D9F73EF490958095FC
S1133920709561957F4F8F4F9F4F0895E89409C01C
S113393097FB3EF490958095709561957F4F8F4FDE
S11339409F4F9923A9F0F92F96E9BB279395F695F4
S1133950879577956795B795F111F8CFFAF4BB0F72
S113396011F460FF1BC06F5F7F4F8F4F9F4F16C0D6
S1133970882311F096E911C0772321F09EE8872F60
S1133980762F05C0662371F096E8862F70E060E01C
S11339902AF09A95660F771F881FDAF7880F969595
S11339A0879597F9089597F99F6780E870E060E03C
S11339B008959FEF80EC089500240A9416161706C4
S11339C018060906089500240A941216130614060C
S11339D005060895092E0394000C11F4882352F06F
S11339E0BB0F40F4BF2B11F460FF04C06F5F7F4F27
S11339F08F4F9F4F089557FD9058440F551F59F00E
S1133A005F3F71F04795880F97FB991F61F09F3FC7
S1133A1079F087950895121613061406551FF2CFF0
S1133A204695F1DF08C0161617061806991FF1CF40
S1133A3086957105610508940895E894BB27662767
S1133A407727CB0197F9089566D008F48FEF08958E
S1133A500BD0C0CFB1DF28F0B6DF18F0952309F002
S1133A60A2CFA7CF1124EACFC6DFA0F3959FD1F34D
S1133A70950F50E0551F629FF001729FBB27F00D18
S1133A80B11D639FAA27F00DB11DAA1F649F66276D
S1133A90B00DA11D661F829F2227B00DA11D621FBC
S1133AA0739FB00DA11D621F839FA00D611D221F76
S1133AB0749F3327A00D611D231F849F600D211D5A
S1133AC0822F762F6A2F11249F5750408AF0E1F0FD
S1133AD088234AF0EE0FFF1FBB1F661F771F881F46
S1133AE091505040A9F79E3F510570F05CCFA6CF8E
S1133AF05F3FECF3983EDCF3869577956795B79531
S1133B00F795E7959F5FC1F7FE2B880F911D96955A
S1133B10879597F90895990F0008550FAA0BE0E8C7
S1133B20FEEF16161706E807F907C0F0121613067B
S1133B30E407F50798F0621B730B840B950B39F4BB
S1133B400A2661F0232B242B252B21F408950A2621
S1133B5009F4A140A6958FEF811D811D089597FB5F
S1133B60072E16F4009406D077FD08D044D007FC45
S1133B7005D03EF4909581959F4F08957095619579
S1133B807F4F0895A1E21A2EAA1BBB1BFD010DC095
S1133B90AA1FBB1FEE1FFF1FA217B307E407F507F9
S1133BA020F0A21BB30BE40BF50B661F771F881FD5
S1133BB0991F1A9469F760957095809590959B016B
S1133BC0AC01BD01CF010895EE0FFF1F881F8BBF0D
S1133BD00790F691E02D1994A29FB001B39FC00104
S1133BE0A39F700D811D1124911DB29F700D811D25
S1133BF01124911D0895AA1BBB1B51E107C0AA1FE4
S1133C00BB1FA617B70710F0A61BB70B881F991F79
S1133C105A95A9F780959095BC01CD0108950F930D
S1133C201F93CF93DF938230910510F482E090E0EC
S1133C30E091A503F091A60320E030E0A0E0B0E01D
S1133C40309719F140815181028113814817590736
S1133C50C8F08417950769F4109731F012960C9305
S1133C60129713961C9327C00093A5031093A603E1
S1133C7022C02115310519F04217530718F49A018F
S1133C80BD01EF01DF01F801DBCF21153105F9F0AA
S1133C90281B390B2430310580F48A819B816115FE
S1133CA0710521F0FB019383828304C09093A603E2
S1133CB08093A503FE01329644C0FE01E20FF31F78
S1133CC08193919322503109398328833AC02091FA
S1133CD0A3033091A403232B41F4209102023091D9
S1133CE003023093A4032093A30320910002309194
S1133CF001022115310541F42DB73EB7409104026C
S1133D0050910502241B350BE091A303F091A40309
S1133D10E217F307A0F42E1B3F0B2817390778F09E
S1133D20AC014E5F5F4F2417350748F04E0F5F1FFD
S1133D305093A4034093A3038193919302C0E0E0C2
S1133D40F0E0CF01DF91CF911F910F910895CF93B0
S1133D50DF93009709F481C0FC0132971382128229
S1133D60A091A503B091A603109781F4208131811D
S1133D70820F931F2091A3033091A40328173907BE
S1133D8051F5F093A403E093A30367C0ED0120E091
S1133D9030E0CE17DF0740F44A815B819E01411574
S1133DA05105F1F0EA01F5CFD383C28340815181FB
S1133DB0840F951FC817D90759F488819981840FF6
S1133DC0951F0296918380838A819B81938382834A
S1133DD02115310529F4F093A603E093A5033DC012
S1133DE0E901FB83EA8349915991C40FD51FEC176C
S1133DF0FD0761F480819181840F951F0296E9018A
S1133E0099838883828193819B838A83E0E0F0E0B5
S1133E1012968D919C911397009719F0FD01DC0186
S1133E20F7CF8D919C9111979D012E5F3F4F820F8B
S1133E30931F2091A3033091A4032817390769F431
S1133E40309729F41092A6031092A50302C013829E
S1133E501282B093A403A093A303DF91CF9108959A
S1133E60FB01DC0102C001900D9241505040D8F793
S1133E700895DC0101C06D9341505040E0F708956E
S1073E80F894FFCFE0
S1133E840000A70320000349444C4500546D7220EC
S1133E94537663005F636F7265004576656E747371
S1133EA4207461736B004C56434852470074686530
S1133EB4726D0061757673004E6F726D616C20468D
S1133EC461646500436F6C6F722073686966740083
S1133ED4427265617468652046616465006F666654
S1053EE40000D8
S9030000FC
