S00A00005A5A2E7372656366
S11300009BC00000CAC00000C8C00000C6C00000F9
S1130010C4C00000C2C00000C0C00000BEC00000D8
S1130020BCC00000BAC00000B8C000000C94C113EA
S1130030B4C00000B2C00000B0C00000AEC00000F8
S1130040ACC00000AAC00000A8C00000A6C0000008
S1130050A4C00000B7C70000A0C000009EC00000FC
S11300609CC000009AC0000098C0000096C0000028
S113007094C0000092C0000090C000008EC0000038
S11300800C948A118AC0000088C0000086C0000059
S113009084C0000082C0000080C000007EC0000058
S11300A07CC000007AC0000078C0000076C0000068
S11300B074C0000072C0000070C000006EC0000078
S11300C06CC000006AC0000068C0000066C0000088
S11300D064C0000062C0000060C000005EC0000098
S11300E05CC000008091E8028823F1F00FB6F89418
S11300F00F92E091EE02F091EF02C681D781CE011A
S113010002962AD68091DE0281508093DE0280918D
S1130110E80281508093E8020F900FBE8F89988D7A
S1130120A1D5CE019FD5DECF809111038230D0F2CC
S113013087D6D8CF13061F1011241FBECFEFD1E2EC
S1130140DEBFCDBF00E00CBF12E0A0E0B2E0EEE9FC
S1130150FFE200E00BBF02C007900D92AA3AB1077C
S1130160D9F723E0AAEAB2E001C01D92A635B2078E
S1130170E1F710E0CCE9D0E000E006C021970109E6
S1130180802FFE010E949216CA39D10780E0080729
S1130190A9F70E943F120C94CD1732CFCF93DF936F
S11301A0EC01AEE2B2E08FEF90E019969C938E934F
S11301B01897E881F0E0EE0FFF1FE25EFD4F01901B
S11301C0F081E02D808190E013969C938E9312979A
S11301D0E881F0E0EE0FFF1FE25EFD4F0190F08139
S11301E0E02D818190E015969C938E931497E8817D
S11301F0F0E0EE0FFF1FE25EFD4F0190F081E02D75
S1130200828190E017969C938E93169765E08FEF0A
S113021024D31092B2021092B10280E090E0DF91F8
S1130220CF910C94E10BDC018091AF029091B0026C
S1130230892B69F5EC91F0E0EE0FFF1FE25EFD4FB4
S11302400190F081E02D808190E0909331028093C1
S11302503002EC91F0E0EE0FFF1FE25EFD4F0190E3
S1130260F081E02D818190E09093330280933202FB
S1130270EC91F0E0EE0FFF1FE25EFD4F0190F08184
S1130280E02D828190E0909335028093340263E004
S113029081E0E3D263E08FEFE0D21092AE021092DD
S11302A0AD0280E090E00C94E10B2091AD0230911E
S11302B0AE02232B31F42FEF30E03093370220933A
S11302C036022AD21092B0021092AF0280E090E07F
S11302D00C94E10BCF93DF93CDB7DEB72A970FB61B
S11302E0F894DEBF0FBECDBF3BEAE32E32E0F32E1F
S11302F002E020E030E040E850E06CE472E08DE49D
S113030092E00E94ED0AC12C48E0D42E10E08091C6
S11303103802909139020097E1F0019741F580E0AD
S11303200E94FB1011E0C816D90608F010E0CE01B7
S113033001960E942810693B7B4081059105B8F025
S1130340CE0101960E944D1083E00E94FB106C01C7
S11303500EC080E00E94FB1020913A0230913B02D3
S1130360245C3F4F11E08217930708F410E0CE019C
S113037006960E942810653671058105910598F14D
S1130380112389F1CE0106960E944D108091AA0294
S11303908F5F8093AA0280912E0290912F02813068
S11303A0910531F108F042C08091B1029091B202FE
S11303B0009751F00E94E10B1092B2021092B10228
S11303C082E090E00E94F40D21EBE22E22E0F22E76
S11303D004E020E030E040E850E060E672E08EECBB
S11303E090E00E94ED0A8AE090E00E94F40D8FCF25
S11303F08091AF029091B002009751F00E94E10BFE
S11304001092B0021092AF0282E090E00E94F40DCC
S11304109FEAE92E92E0F92E04E020E030E040E883
S113042050E06BE672E085E591E0DBCF8230910528
S1130430F1F48091B1029091B202009751F00E94C0
S1130440E10B1092B2021092B10282E090E00E949D
S1130450F40D8DEAE82E82E0F82E04E020E030E08E
S113046040E850E065E772E083E191E0BACF049799
S113047009F0B9CF80914C0390914D030E942F0C49
S1130480833009F4B0CF80914C0390914D030097D1
S113049009F4A9CF0E94480EA6CFCF93DF9300D0D2
S11304A01F921F92CDB7DEB7E12CF12C00E010E0D3
S11304B0812C912C540180E00E94FB10E816F9066F
S11304C008F47C01CE0101960E9428106F3071055A
S11304D08105910560F08E0C9F1CA11CB11C0F5F5F
S11304E01F4FCE0101960E944D10E12CF12C0233D6
S11304F01105B8F00FB6F8940F92980140E050E05F
S1130500C501B4010E94701630933B0220933A0255
S11305100F900FBEE12CF12C00E010E0812C912C07
S1130520540184E090E00E94F40DC5CF8091B102A3
S11305309091B202009751F00E94E10B1092B20226
S11305401092B10282E090E00E94F40D8091AF021B
S11305509091B002009751F00E94E10B1092B0020A
S11305601092AF0282E090E00E94F40D8091AD02FF
S11305709091AE02009751F00E94E10B1092AE02EE
S11305801092AD0282E090E00C94F40D0895CF92A5
S1130590DF92EF92FF92CF93DF93CEE2D2E06A81B3
S11305A07B81072E000C880B990B0E9445156B016B
S11305B07C0168857985072E000C880B990B0E94B5
S11305C045159B01AC01C701B6010E94F91520E055
S11305D030E04FE753E40E94AF140E941715462FF2
S11305E062E484E00E9418116C817D81072E000C66
S11305F0880B990B0E9445156B017C0168857985F0
S1130600072E000C880B990B0E9445159B01AC0129
S1130610C701B6010E94F91520E030E04FE753E42A
S11306200E94AF140E941715462F62E485E00E94D1
S113063018116E817F81072E000C880B990B0E9484
S113064045156B017C0168857985072E000C880BA4
S1130650990B0E9445159B01AC01C701B6010E948C
S1130660F91520E030E04FE753E40E94AF140E94F4
S11306701715462F62E486E0DF91CF91FF90EF904B
S1130680DF90CF900C941811CF93E0910000F0E02C
S1130690EE0FFF1FE25EFD4F0190F081E02D80819F
S11306A090E09093310280933002818190E09093A6
S11306B0330280933202828190E0909335028093DA
S11306C03402C5E040E062E484E00E948F1040E020
S11306D062E485E00E948F1040E062E486E00E94BC
S11306E08F108AEF90E00E94F40D41E062E484E010
S11306F00E948F1041E062E485E00E948F1041E087
S113070062E486E00E948F108AEF90E00E94F40D6C
S1130710C150C1F6CF910895CF93DF93EC0140917E
S1130720300250913102E881F0E0EE0FFF1FE25EEB
S1130730FD4F0190F081E02D608170E0A181209156
S1130740320230913302E281809134029091350279
S11307504617570759F46A2F70E02617370749F4EC
S11307606E2F70E08617970721F474C0641775071D
S113077014F061E001C06FEFB0E0A217B30714F406
S1130780BFEF01C0B1E0F0E0E817F90714F4AFEFF0
S113079001C0A1E07AE0679F400D511D11245093E0
S11307A03102409330027AE0B79F200D311D1124AD
S11307B030933302209332027AE0A79F800D911D7B
S11307C011249093350280933402613071F4E881EE
S11307D0F0E0EE0FFF1FE25EFD4F0190F081E02D8F
S11307E0608170E0461757070CF4BA017093310228
S11307F060933002B13071F4E881F0E0EE0FFF1F36
S1130800E25EFD4F0190F081E02D418150E024171C
S113081035070CF4A9015093330240933202A130FE
S113082071F4E881F0E0EE0FFF1FE25EFD4F0190EE
S1130830F081E02D228130E0821793070CF49C01B3
S11308403093350220933402A2DE8AE090E00E94C5
S1130850F40D65CFDF91CF910895CF92DF92EF929F
S1130860FF921F93CF93DF93182F88E0189FE00126
S11308701124C62ED12CE12CF12C809136029091BA
S11308803702112321F08F3F910524F022C018165E
S11308901906FCF48C0F9D1F97FF02C080E090E0C6
S11308A08F3F910519F014F08FEF90E09093370289
S11308B0809336026CDEC701B6010E9445159B0188
S11308C0AC010E9447140E941715CB010E94F40D3D
S11308D0D4CFDF91CF911F91FF90EF90DF90CF9015
S11308E0089561E872E00E94C417892B19F084E02E
S11308F090E011C080912E0290912F0284309105D6
S113090029F410922F0210922E0209C0019663E07E
S113091070E00E945C1690932F0280932E02409107
S11309202E0250912F0261E085E493E00E94501062
S1130930FDCD1092BC021092BD0281E08093CF02E3
S1130940A3DE83EC92E00E944D108FEF90E0909331
S11309503702809336026FE08FEF7FDF88EC90E000
S11309600E94F40D80914C0390914D0378D783300D
S113097039F480914C0390914D03009709F0A7C777
S113098008950FB6F8940F920E94C5122FEF89EFC5
S113099090E0215080409040E1F700C0000041E029
S11309A068E484E00E948F1087E393E00E944D1076
S11309B00F900FBEEDE3F2E0868182608683089596
S11309C00FB6F8940F920E94C5122FEF89EF90E0B2
S11309D0215080409040E1F700C0000040E068E40E
S11309E084E00E948F1087E393E00E944D102FEF64
S11309F089EF90E0215080409040E1F700C0000072
S1130A00EDE3F2E086818D7F86830F900FBE08951B
S1130A10CFEFD0E011E083EB92E00E9451118823E4
S1130A2029F08EEB92E00E944D100BC08EEB92E009
S1130A300E942810633371058105910510F010920E
S1130A40CF0280914302082F017080FFCEC08091B5
S1130A50CF028111CAC08091BC02882321F0813069
S1130A6009F43EC0C2C088EC92E00E942810693E9E
S1130A7073408105910568F10093BC021092BD0298
S1130A8083EC92E00E944D1088EC92E00E944D109D
S1130A9080914C0390914D03E2D6833039F08091DC
S1130AA04C0390914D03009709F0AEC03FDD6FE019
S1130AB08FEFD3DEE9DDD0933702C09336028DEB9E
S1130AC092E02ADE80E991E00E94F40D1093CF02B7
S1130AD08CC083EB92E00E945111811186C060C0EA
S1130AE083EC92E00E9428106137774181059105DB
S1130AF008F01FDF83EB92E00E945111882309F470
S1130B0054C088EC92E00E9428107093CE02609347
S1130B10CD0283EC92E00E944D108091CD02909121
S1130B20CE02893E934008F460C01093CF028091B6
S1130B30BD02813061F180F0823061F1833081F552
S1130B40809138029091390201968170992790938F
S1130B5039028093380223C08091430284FD02C08D
S1130B60806101C08F7E809343028091430284FFA1
S1130B7016C080914A0390914B0371D6833079F467
S1130B8080914A0390914B03009741F408C089E88F
S1130B9092E002C081E892E0A4DE01C098D6C9DEEA
S1130BA088EC92E00E944D1020C08091CD0290917B
S1130BB0CE020097D1F0843F914040F48091BD0271
S1130BC090E00196837099278093BD02D0933702F9
S1130BD0C09336028DEB92E09FDD88EC92E00E9498
S1130BE04D101092CE021092CD028CE393E00E943D
S1130BF05111882361F08091430281FD08C0C1DE58
S1130C008AE090E0F1D707CF0E94480E4FCF8CE3E3
S1130C1093E00E9451118111F3CF8091430281FF2F
S1130C20EFCFCEDEEDCFECEBF2E010821182128A30
S1130C30118A138AE3EBF2E087E4868385E090E08F
S1130C4095838483108617820895CF93DF93EC01F4
S1130C50ABD6CE010E949A16EC0159D7CE01DF9192
S1130C60CF910895CF93DF93009741F0EC019CD688
S1130C70CE010E943217DF91CF9149C7DF91CF9106
S1130C800895FC010396928381832FEF3FEF348311
S1130C902383968385839087878310820895FC013C
S1130CA0118610860895CF93DF939C01FB01DC012C
S1130CB01196CD91DC911297D383C2838C819D814F
S1130CC0958384838C819D81DC0113967C936E9340
S1130CD012977D836C8331872087F90180818F5F30
S1130CE08083DF91CF9108950F931F93CF93DF9368
S1130CF08C01FB01808191818F3F2FEF920721F4BA
S1130D00E801AF81B8850EC0D801139612962D91D3
S1130D103C911397E901488159818417950710F094
S1130D20D901F4CF12968D919C911397938382836A
S1130D30EC01FD83EC83B583A4831396FC93EE93BB
S1130D40129711870087F80180818F5F8083DF917C
S1130D50CF911F910F910895CF93DF93FC01A0854C
S1130D60B1858281938124813581EC013D832C837B
S1130D70C481D5819B838A8311968D919C9112970E
S1130D80E817F90721F41296DC93CE931197118694
S1130D9010868C9181508C938C91DF91CF91089522
S1130DA0FC016083319770833197108231971082F0
S1130DB0319720E820833197108231971082319740
S1130DC010827797408331975083869708958CE7F4
S1130DD087BD82E084BD93E095BD80936E00A091B1
S1130DE03503B0913603CD91CDBFDD91DEBFFF91C8
S1130DF0EF91DF91CF91BF91AF919F918F917F91AF
S1130E006F915F914F913F912F911F910F91FF909F
S1130E10EF90DF90CF90BF90AF909F908F907F9096
S1130E206F905F904F903F902F901F900F900CBE4B
S1130E300F900BBE0F900FBE0F90089581E00895A0
S1130E400F920FB6F8940F920BB60F920CB60F9246
S1130E501F9211242F923F924F925F926F927F9232
S1130E608F929F92AF92BF92CF92DF92EF92FF92B6
S1130E700F931F932F933F934F935F936F937F939E
S1130E808F939F93AF93BF93CF93DF93EF93FF938E
S1130E90A0913503B09136030DB60D920EB60D92A6
S1130EA0B4D6A0913503B0913603CD91CDBFDD9179
S1130EB0DEBFFF91EF91DF91CF91BF91AF919F91F1
S1130EC08F917F916F915F914F913F912F911F91DE
S1130ED00F91FF90EF90DF90CF90BF90AF909F90D5
S1130EE08F907F906F905F904F903F902F901F90C6
S1130EF00F900CBE0F900BBE0F900FBE0F90089575
S1130F000F920FB6F8940F920BB60F920CB60F9285
S1130F101F9211242F923F924F925F926F927F9271
S1130F208F929F92AF92BF92CF92DF92EF92FF92F5
S1130F300F931F932F933F934F935F936F937F93DD
S1130F408F939F93AF93BF93CF93DF93EF93FF93CD
S1130F50A0913503B09136030DB60D920EB60D92E5
S1130F6029D5811152D6A0913503B0913603CD9184
S1130F70CDBFDD91DEBFFF91EF91DF91CF91BF91A6
S1130F80AF919F918F917F916F915F914F913F911D
S1130F902F911F910F91FF90EF90DF90CF90BF9012
S1130FA0AF909F908F907F906F905F904F903F9005
S1130FB02F901F900F900CBE0F900BBE0F900FBE82
S1130FC00F9008959DDF18950FB6F8940F92FC01C9
S1130FD0928D0F900FBE81E0911180E008950F93E0
S1130FE01F93CF93DF93EC01042F1A8D4C8D411185
S1130FF00AC088819981892BE1F58C819D818CD7E8
S11310001D821C8237C050E0011115C08A819B816A
S11310100E94BB172C8D8A819B81820F911D9B831B
S11310208A832C813D818217930718F188819981E5
S11310309B838A831EC08E819F810E94BB178C8DE7
S113104090E09195819591092E813F81280F391F58
S11310503F832E83488159812417350730F42C812E
S11310603D81820F931F9F838E83023011F41111EF
S1131070115080E01F5F1A8FDF91CF911F910F9164
S11310800895EF92FF920F931F93CF93DF931F92D4
S11310901F92CDB7DEB79A838983FC01078D10A117
S11310A0F801928D838D9817D8F4F68C40E0BE0138
S11310B06F5F7F4FC80193DFE82EFFEFFF120CC074
S11310C0F8018189882369F0C801419642D68823B2
S11310D041F0EE24E39405C0F394F801F68E01C0C8
S11310E0E12C8E2D0F900F90DF91CF911F910F91D6
S11310F0FF90EF900895EF92FF921F93CF93DF93A9
S1131100EC010FB6F8940F921E8D7C0181E1E80E7C
S1131110F11C111694F48F8D98A1892B31F0CE0116
S1131120B0DF882341F091D606C08989882329F04D
S1131130C7010FD6F6CF1150ECCF8FEF8E8F0F90E3
S11311400FBE0FB6F8940F921D8D7E0188E0E80E55
S1131150F11C11164CF48885882331F0C701F9D5A8
S1131160811173D61150F5CF8FEF8D8F0F900FBE75
S1131170DF91CF911F91FF90EF900895CF93DF936C
S1131180EC010FB6F8940F92488159818B8D7C8DB8
S11311909A01879F200D311D11243D832C831A8EC3
S11311A05B834A8390E00197789F9001799F300D8B
S11311B01124CA01820F931F9F838E838FEF8D8F1B
S11311C08E8F61110AC08885882369F0CE01089644
S11311D0C0D5882341F034DE06C0CE01089651DD27
S11311E0CE0141964EDD0F900FBE81E0DF91CF918D
S11311F008950F931F93CF93DF93082F162F869F85
S1131200C0011124819621DDEC01009779F01111C0
S113121003C09983888303C08196998388830B8F45
S11312201C8F61E0CE01AADF18A21F8ECE01DF91D0
S1131230CF911F910F910895AF92BF92CF92DF92F9
S1131240FF920F931F93CF93DF9300D01F921F92AF
S1131250CDB7DEB78C016B015D834C83F22E80E049
S1131260580198E0A90EB11C0FB6F8940F92F8013A
S1131270228D938D291718F0F2E0FF1222C0F80195
S1131280B28C4F2DB601C801AADEF801278D30A11A
S1131290232B59F0F2E0FF1202C0B1100EC0C801B6
S11312A0F0DE882351F0CCDD08C0F8019189992340
S11312B0C1F3C80141964DD5F4CF0F900FBE81E024
S11312C045C02C813D81232B19F40F900FBE3DC0E6
S11312D0811103C0CE0101967CD50F900FBE64D35B
S11312E00FB6F8940F92F801858D8F3F09F4158E8F
S11312F0F801868D8F3F09F4168E0F900FBEBE0144
S11313006C5F7F4FCE0101966FD581111BC00FB664
S1131310F8940F92F801928D838D0F900FBE98135D
S11313200DC06C817D81C50104D5C801E4DEEFD315
S1131330882311F081E098CF83DDFCCFC801DBDE88
S1131340E6D3F8CFC801D7DEE2D380E00F900F9048
S11313500F900F900F90DF91CF911F910F91FF90FD
S1131360DF90CF90BF90AF900895CF93DF93482F35
S113137060E081E03EDFEC01009759F01D821C82A1
S1131380198218821E8220E040E050E060E070E0A4
S113139053DFCE01DF91CF910895CF92DF92FF9278
S11313A00F931F93CF93DF9300D01F921F92CDB75B
S11313B0DEB78C017D836C83F12C90E0680181E1C0
S11313C0C80ED11C0FB6F8940F92D8015A968C917E
S11313D05A978823D1F081505A968C935A978D91BD
S11313E09C91892B21F419D6F80195838483D80123
S11313F018968C91882329F0C8010896AAD48111E3
S11314001FDD0F900FBE81E06BC02C813D81232B2B
S113141009F463C0911103C0CE010196DAD40F9090
S11314200FBEC2D20FB6F8940F92F801858D8F3F8C
S113143009F4158ED8015E968C915E978F3F11F456
S11314405E961C920F900FBEBE016C5F7F4FCE0163
S11314500196CAD4811123C0C801B6DD8823D9F00E
S1131460F80180819181892B49F40FB6F8940F9289
S113147084819581EED4F82E0F900FBE6C817D810E
S1131480C60157D4C80137DE42D3882311F091E056
S113149099CFD6DCFCCFC8012EDE39D3F8CFC801F2
S11314A02ADE35D3C80190DD882389F3FF20B9F003
S11314B00FB6F8940F92F8018189882339F00688D1
S11314C0F789E02D808164E0681B01C060E0D801E9
S11314D014968D919C91159759D50F900FBE80E06D
S11314E00F900F900F900F900F90DF91CF911F915D
S11314F00F91FF90DF90CF900895E091FD02F0915D
S1131500FE028081811103C08FEF9FEF09C0E0913B
S1131510FD02F091FE020580F681E02D808191812B
S11315209093D4028093D3020895FF920F931F9354
S1131530CF93DF93EC01F62E0091DC021091DD02D3
S11315408091350390913603029606DCCF3F8FEFEE
S1131550D80781F4FF2071F0609135037091360350
S11315606E5F7F4F8FED92E0DF91CF911F910F91CE
S1131570FF9099CBC00FD11FE0913503F091360352
S1131580D383C2836091350370913603C017D107AA
S113159060F48091FB029091FC026E5F7F4FDF91BB
S11315A0CF911F910F91FF909FCB8091FD0290915D
S11315B0FE026E5F7F4F98DB8091D3029091D4023C
S11315C0C817D90720F4D093D402C093D302DF9173
S11315D0CF911F910F91FF9008954F925F926F9258
S11315E07F928F929F92AF92BF92CF92DF92EF92AF
S11315F0FF920F93CF93DF934C016B015A012901A2
S1131600CA0123DB3C01892B09F4CAC088E290E0BB
S11316101CDBEC01009789F0788E6F8A21E0A21A16
S1131620B1086A0C7B1CC114D104C1F0BC01675E13
S11316307F4FF601C601089606C0C30113DBB0C094
S1131640E817F90749F09F014191DB014D93BD0172
S1131650D9012C912111F4CF18A201C0198E0430A4
S113166008F003E00E8B09A31AA26E01B2E0CB0EC0
S1131670D11CC60114DBCE010C9611DBD987C887B7
S113168084E090E0801B91099D878C87DB8BCA8B5B
S113169084E0FE01B396DF011D928A95E9F71FA24B
S11316A0A201B401C3017CDB99838883E114F104B2
S11316B019F0F701D183C0830FB6F8940F9280918B
S11316C0DE028F5F8093DE028091350390913603B2
S11316D0892B89F5D0933603C09335038091DE02BC
S11316E0813009F038C081E193E0CBDA8AE193E0FC
S11316F0C8DA83E293E0C5DA8CE293E0C2DA88E0E8
S113170093E0BFDA8FEF92E0BCDA82EF92E0B9DACD
S113171089EE92E0B6DA8FED92E0B3DA88E093E0F6
S11317209093FE028093FD028FEF92E09093FC026F
S11317308093FB0210C08091DA0281110CC0E09109
S11317403503F091360396898E89891720F0D0935A
S11317503603C09335038091D5028F5F8093D50201
S11317608E899091DB02981710F48093DB02F9E0E4
S11317708F9FC0011124B6018F5E9C4F94DA0F90A5
S11317800FBE8091DA02882349F0E0913503F0918D
S1131790360396898E89981708F452DB81E001C0DC
S11317A08FEFDF91CF910F91FF90EF90DF90CF906B
S11317B0BF90AF909F908F907F906F905F904F906D
S11317C008950F931F93CF93DF93EC010FB6F89412
S11317D00F92892B21F4C0913503D09136038E01E9
S11317E00E5F1F4FC801B8DA8C899D89892B19F0C7
S11317F0CE010C96B1DA8091D5028F5F8093D50229
S11318008091350390913603C817D90751F4B80174
S113181089EE92E048DA8091E8028F5F8093E802D3
S11318200BC08091DE0281508093DE028F89988DF7
S113183019DACE0117DA61DE0F900FBE8091DA0259
S1131840882341F08091350390913603C817D90756
S113185009F4F6DADF91CF911F910F910895FC01FD
S11318608091350390913603E817F90751F10FB6CB
S1131870F8940F92228533854091FD025091FE0227
S11318808091FB029091FC020F900FBE2417350744
S1131890D1F028173907B9F082E02F3D380749F411
S11318A084899589892B79F487A1813061F083E05B
S11318B0089582E0293E380741F0232B31F081E07E
S11318C0089580E0089582E0089584E008950F93D8
S11318D01F93CF93DF932091350330913603821702
S11318E0930709F435C0009709F432C00FB6F89491
S11318F00F92FC01228533852F5D324039F5FC01BE
S113190024893589F2E0223F3F0701F1232BF1F4CA
S1131910EC018C010E5F1F4FC8011EDA8E89909175
S1131920DB02981710F48093DB0229E0829FC00148
S11319301124B8018F5E9C4FB6D9E0913503F09124
S113194036039E898689981708F07ADA0F900FBEBD
S1131950DF91CF911F910F910895EF92FF920F9312
S113196081EDE82E82E0F82E00E020E030E040E057
S113197051E065E872E082E790E02FDE813071F497
S1131980F8942FEF3FEF3093D4022093D302809347
S1131990DA021092DD021092DC0219DA80913C0224
S11319A00F91FF90EF9008958091D0028F5F809304
S11319B0D0020895CF92DF92EF92FF920F931F937C
S11319C0CF93DF938091D00281118DC00091DC020E
S11319D01091DD020F5F1F4F1093DD020093DC02B4
S11319E001151105B1F48091FD029091FE02209140
S11319F0FB023091FC023093FE022093FD0290938F
S1131A00FC028093FB028091D6028F5F8093D60202
S1131A1074DD8091D3029091D402C0E008171907B5
S1131A2008F44CC0D9E0E091FD02F091FE028081FF
S1131A30811103C08FEF9FEF11C0E091FD02F0917F
S1131A40FE020580F681E02DE680F780D70112962C
S1131A508D919C9113970817190728F49093D40239
S1131A608093D3022BC06701B2E0CB0ED11CC60118
S1131A7073D9F70184899589892B19F0C7010C96CC
S1131A806BD9D70156968C919091DB02981710F47C
S1131A908093DB02D89FC0011124B6018F5E9C4F56
S1131AA002D9E0913503F0913603D70156969C9103
S1131AB08689981708F4B7CFC1E0B5CFE091350314
S1131AC0F0913603E689B9E0EB9FF0011124EF5E53
S1131AD0FC4F8081823008F0C1E08091D7028823D6
S1131AE061F0C1E00AC08091D8029091D9020196B8
S1131AF09093D9028093D802C0E08C2FDF91CF91CC
S1131B001F910F91FF90EF90DF90CF900895EF9287
S1131B10FF920F931F93CF93DF930FB6F8940F9216
S1131B208091D00281508093D0028091D00288238A
S1131B3011F080E050C08091DE028823D1F3C0E030
S1131B40D0E089E0F82EEE24E3948091F202882319
S1131B5039F1E091F702F091F802C681D781CE0104
S1131B600C96FAD88E010E5F1F4FC801F5D88E89E6
S1131B709091DB02981710F48093DB02F89EC00169
S1131B801124B8018F5E9C4F8ED8E0913503F091FB
S1131B9036039E8986899817C0F2E092D702D5CF82
S1131BA0CD2B09F0AADCC091D802D091D90220979C
S1131BB059F011E0FFDE81111093D7022197D1F77C
S1131BC01092D9021092D8028091D702882309F486
S1131BD0B0CF36D981E00F900FBEDF91CF911F9126
S1131BE00F91FF90EF900895CF93DF93EC01892B31
S1131BF011F426D907C0D8DE60E0CE0196DC87DF79
S1131C008823B9F3DF91CF9108958091D00288237E
S1131C1021F081E08093D70208951092D702809139
S1131C20DB0269E0482F50E0649F9001659F300D0E
S1131C301124F901EF5EFC4F9081911102C0815093
S1131C40F1CFA181B28112960D90BC91A02DB283E7
S1131C50A1832C5E3C4FA217B30731F412962D9149
S1131C603C9113973283218399E0949FF001959FCF
S1131C70F00D1124EF5EFC4F0180F281E02D2681EE
S1131C80378130933603209335038093DB02089524
S1131C900F931F93CF93DF93EC010FB6F8940F9239
S1131CA0892B21F4C0913503D09136038E010E5F48
S1131CB01F4FC80151D88C899D89892B19F0CE01F9
S1131CC00C964AD8B8018FED92E00E9453068FA17A
S1131CD0813009F41FA20F900FBE8091DA0288238D
S1131CE031F00FB6F8940F9208DC0F900FBE80917C
S1131CF0350390913603C817D907B1F48091DA02FD
S1131D00882311F09DD810C09091DF028091DE02EB
S1131D10981305C0109236031092350305C0DF9165
S1131D20CF911F910F9171CFDF91CF911F910F919F
S1131D300895CF93DF93EB016091350370913603DF
S1131D40645F7F4F0E94740661E0CE01DF91CF9102
S1131D50ECCB0F931F93CF93DF93DC011596ED919A
S1131D60FC911697C681D7818E01045F1F4FC8016D
S1131D700E94AC068091D002811114C00A5011094E
S1131D80C8010E94AC068E899091DB02981710F46A
S1131D908093DB02B9E08B9FC0011124B8018F5EF0
S1131DA09C4F03C0B80182EF92E00E945306E09179
S1131DB03503F09136039E898689891720F481E0E2
S1131DC08093D70201C080E0DF91CF911F910F91E2
S1131DD008952091D602FC0120832091DC023091E9
S1131DE0DD02328321830895CF93DF930FB6F894F5
S1131DF00F924091DC025091DD02DB012D913C9168
S1131E002F3FBFEF3B07D9F0EC01E981FA81A091A4
S1131E10D602B881BA1741F04E175F0728F0FB01CC
S1131E201182108281E00CC04E1B5F0B42175307D6
S1131E30B0F7FB01241B350B31832083CADF80E01C
S1131E400F900FBEDF91CF91089581E08093D70268
S1131E5008950F931F93CF93DF93FC01892B09F40B
S1131E6055C08689A0913503B091360356969C914E
S1131E70891708F041C02485358537FD0CC0A09131
S1131E803503B091360356969C9124E030E0291B2B
S1131E9031093587248729E0829FC00111248F5E90
S1131EA09C4F2285338528173907E9F48F01EF0108
S1131EB02296CE010E94AC06E0913503F0913603E0
S1131EC08689F801868B9091DB02981710F4809331
S1131ED0DB02F9E08F9FC0011124BE018F5E9C4F8D
S1131EE00E94530607C0A0913503B091360356965D
S1131EF08C91868B81E00BC0A0913503B0913603A1
S1131F0081E021A156969C91291708F080E0DF9189
S1131F10CF911F910F9108950F931F93CF93DF9348
S1131F20FC01892B11F480E02CC082A1815082A392
S1131F30268991A12917B9F38111F5CFEF018F01FA
S1131F400E5F1F4FC8010E94AC0689A18E8B482FDB
S1131F5050E024E030E0241B350B3D872C87909122
S1131F60DB02981710F48093DB0229E0249FC00160
S1131F70259F900D1124B8018F5E9C4F0E9453063B
S1131F8081E0DF91CF911F910F9108950F931F93DB
S1131F90CF93DF93FC01892BD9F191A1961708F413
S1131FA0962F86898917A1F122A1213089F5968B74
S1131FB02485358537FD06C024E030E0291B31092E
S1131FC03587248729E0829FC00111248F5E9C4FAE
S1131FD02285338528173907D9F4EF018F010E5F65
S1131FE01F4FC8010E94AC068E899091DB0298179E
S1131FF010F48093DB0229E0829FC0011124B80110
S11320008F5E9C4FDF91CF911F910F910C945306DB
S1132010DF91CF911F910F91089580913503909195
S11320203603892B39F0E0913503F091360382A110
S11320308F5F82A380913503909136030895ECE37A
S1132040F3E08BE486831582148210861782089548
S11320500F931F93FC0120818091480290914902C3
S1132060A0914A02B0914B0221110AC0818392834C
S1132070A383B48381E0808360E070E0CB010AC075
S11320800181128123813481BC01CD01601B710B5C
S1132090820B930B1F910F910895FC0110820895F8
S11320A0F999FECF52BD41BD60BDFA9AF99A0895DF
S11320B0F999FECF72BD61BDF89A80B50895623476
S11320C069F5853091F08630D1F0843039F580910E
S11320D0B0008F778093B0008091B00085FD1EC062
S11320E01092B1001092B2000895809180008F7711
S11320F0809380008091800085FD10C009C080918C
S113210080008F7D809380008091800087FD06C0D1
S113211010928100109285001092840008951F93FC
S1132120CF93DF93C82FD62F142FC9DFD43499F05F
S1132130D83401F1D23471F525B181E090E001C0C9
S1132140880FCA95EAF7112311F0822B02C08095FB
S1132150822385B91FC02BB181E090E001C0880FB4
S1132160CA95EAF7112311F0822B02C080958223CD
S11321708BB910C02091020181E090E001C0880F6A
S1132180CA95EAF7112311F0822B02C080958223AD
S113219080930201DF91CF911F910895CF93DF9334
S11321A0C82FD62F8CDFD43471F0D834B1F0D234A8
S11321B0F9F425B181E090E001C0880FCA95EAF7EF
S11321C0822785B915C02BB181E090E001C0880F4A
S11321D0CA95EAF782278BB90BC02091020181E0EE
S11321E090E001C0880FCA95EAF782278093020124
S11321F0DF91CF9108950FB6F8940F92982F9064C1
S113220090937C0090917A00906490937A009091DE
S11322107A0096FDFCCF90917C0080958923809371
S11322207C000F900FBE8091780090917900089502
S11322306234B1F594B121E030E0082E01C0220FE0
S11322400A94EAF7292B24B9853079F08630D9F03D
S1132250843031F58091B00083688093B00081E0D0
S11322608093B1004093B300089580918000816809
S11322708093800089E08093810050E0509389002E
S1132280409388000895809180008162809380004B
S113229089E08093810050E050938B0040938A0042
S11322A00895FC018681843461F020F48234E9F4D9
S11322B023B10AC0873439F08B34B9F42091060174
S11322C003C029B101C022B381E090E0048002C0C0
S11322D0880F991F0A94E2F730E08223932321E0C8
S11322E0181619060CF020E0218387819085892B2C
S11322F021F0918181E089278183818190819817E0
S113230041F091E0882319F0928390830895938398
S1132310108208951F920F920FB60F9211240BB6DC
S11323200F928F939F93AF93BF93EF93FF93EDE33C
S1132330F2E083859485A585B6850196A11DB11D1E
S113234083879487A587B687FF91EF91BF91AF915B
S11323509F918F910F900BBE0F900FBE0F901F9007
S11323601895EF92FF920F9381E08DB988E38093E3
S1132370010180EF84B9109290008BE0809391006A
S113238089EF90E0909399008093980082E0809385
S1132390710080E480937C0080917A00806880934F
S11323A07A0080917A00806480937A0041E067E447
S11323B085E0B5DE60E070E085E493E079DE90913D
S11323C04302882311F0946001C09B7F90934302E1
S11323D081E00E94B509909347038093460320E06F
S11323E040E050E060E070E00E941C0980E5E82EC7
S11323F083E0F82E01E020E030E040E051E06AE8BC
S113240072E081EF92E1E9D89EE4E92E93E0F92E9F
S113241003E020E030E040E051E060E972E088E071
S113242095E0DBD82AE4E22E23E0F22E01E020E05E
S113243030E040E051E06CE972E088EE93E1CDD801
S113244038E4E32E33E0F32E20E030E040E051E0C6
S11324506EE972E083E492E1C0D84CE4E42E43E0F8
S1132460F42E02E020E030E040E051E063EA72E064
S11324708AE691E0B2D80F91FF90EF906ECA71DFB7
S113248080E090E008956FEF7FEF80914603909194
S113249047030E94CD09C0904402D0904502E090C9
S11324A04602F090470220E030EB41E855E4C701D2
S11324B0B6019BD387FD0AC0C0914302C3FD5AC035
S11324C0C860C093430241E050E012C020E030E015
S11324D04AE755E4C701B6013ED218166CF0C09124
S11324E04302C3FF09C0C77FC093430240E050E0EA
S11324F060E085E493E0D4DD20E040E050E060E07B
S113250070E080914603909147030E941C098091DA
S1132510430283FF0CC08091430283FF0DC040E05F
S113252068E485E0FCDD80914302877F20C08CE372
S113253093E0B7DE882379F38091430283FD09C0D9
S11325408CE393E0AEDE882321F08091430283FF85
S113255004C088EC90E048DB96CF80ED97E044DB44
S113256041E068E485E0DBDD80914302886080938C
S11325704302EFCF20E030E04AE755E4C701B6015B
S1132580EAD118160CF0AFCFB7CF40E062E487E091
S1132590C6DD40E068E483E0C2DDEDE3F2E086817D
S11325A08E7F868384E090E090932F0280932E02A6
S11325B0089561E070E085E493E07ADD90E0909323
S11325C02F0280932E0241E062E487E0A8DD41E01F
S11325D068E483E0A4DDEDE3F2E086818160868334
S11325E00895CF93DF93CDB7DEB763970FB6F89412
S11325F0DEBF0FBECDBF8BE48F8381E090E09E836E
S11326008D8319861886CE010F9622DD653F7140B1
S11326108105910518F16FEF7FEF8091460390914A
S113262047030E94CD0982E0E6DDBC0180E090E032
S11326302AD220E030E44CE955E4DBD220E030EC4F
S11326404FE754E48CD16093440270934502809325
S1132650460290934702CE010F961FDD20E040E032
S113266050E060E070E080914603909147030E943F
S11326701C0987E393E0ECDC603D7740810591051C
S1132680A8F020E030E44EE455E4609144027091F7
S113269045028091460290914702A7D2909143024D
S11326A0181614F091FF02C090FF0EC0CE010196DF
S11326B0F8DD811112C0CE010A96CADC6F317105B2
S11326C08105910518F409C074DFF0CF80914302AD
S11326D080FD5BDF87E393E007C0CE010196E1DD77
S11326E0882319F0CE010A96D8DC20E030E048E4D3
S11326F055E46091440270914502809146029091A4
S1132700470229D118169CF08CE393E0CADD8111AD
S11327100EC020E030E0A9016091440270914502AE
S1132720809146029091470260D2181624F084E109
S113273090E05ADA68CF13D0FACF83B78E7F83BF85
S1132740109268001BBA10926D002FEF83EC99E091
S1132750215080409040E1F700C00000089515DF4B
S1132760789484E0809368008BBB82E080936D0052
S113277083B7817F846083BF83B7816083BF88957B
S113278008951F920F920FB60F9211240BB60F9259
S11327902F933F934F935F936F937F938F939F9365
S11327A0AF93BF93EF93FF93C8DFFF91EF91BF9176
S11327B0AF919F918F917F916F915F914F913F91D5
S11327C02F910F900BBE0F900FBE0F901F90189576
S11327D0CF93DF9300D01F921F92CDB7DEB78091C5
S11327E0430284FF2DC08CE393E05BDD81110DC0B7
S11327F0CE0101962DDC683273428105910590F576
S11328008091430280FD36C02DC08091430283FF36
S11328100AC088EE93E0E8D965E480E0BFDCCE012D
S113282001963BDC1BC041E065E480E078DC80E796
S113283097E1DAD9809143028F7E809343020EC0E0
S1132840289880914A0390914B0309D8833031F042
S113285080914A0390914B030097B1F480E991E091
S1132860C3D9BDCFCE01019618DC40E065E480E019
S113287056DCF4CFCE010196EBDB6137774181055D
S1132880910560F341E0F2CF03DAE8CF5058BB275B
S1132890AA270ED070C161D130F066D120F031F496
S11328A09F3F11F41EF456C10EF4E095E7FB4CC1B2
S11328B0E92F72D180F3BA1762077307840795076B
S11328C018F071F49EF58AC10EF4E0950B2EBA2F20
S11328D0A02D0B01B90190010C01CA01A001112422
S11328E0FF27591B99F0593F50F4503E68F11A16CE
S11328F0F040A22F232F342F4427585FF3CF46955F
S113290037952795A795F0405395C9F77EF41F1680
S1132910BA0B620B730B840BBAF09150A1F0FF0F4A
S1132920BB1F661F771F881FC2F70EC0BA0F621F36
S1132930731F841F48F4879577956795B795F79526
S11329409E3F08F0B3CF9395880F08F09927EE0FB8
S1132950979587950895D4D008F481E008950CD014
S11329600AC102D140F0F9D030F021F45F3F19F0F0
S1132970EBC0511134C1EEC00FD198F39923C9F3C0
S11329805523B1F3951B550BBB27AA276217730771
S1132990840738F09F5F5F4F220F331F441FAA1F25
S11329A0A9F333D00E2E3AF0E0E830D091505040E5
S11329B0E695001CCAF729D0FE2F27D0660F771F93
S11329C0881FBB1F261737074807AB07B0E809F075
S11329D0BB0B802DBF01FF2793585F4F2AF09E3F0A
S11329E0510568F0B1C0FBC05F3FECF3983EDCF3E7
S11329F0869577956795B795F7959F5FC9F7880F83
S1132A00911D9695879597F90895E1E0660F771FD4
S1132A10881FBB1F621773078407BA0720F0621B65
S1132A20730B840BBA0BEE1F88F7E0950895BCD0A6
S1132A3088F09F5790F0B92F9927B751A0F0D1F0A3
S1132A40660F771F881F991F1AF0BA95C9F712C02D
S1132A50B13081F0C3D0B1E00895C0C0672F782FA2
S1132A608827B85F39F0B93FCCF386957795679599
S1132A70B395D9F73EF490958095709561957F4F05
S1132A808F4F9F4F0895E89409C097FB3EF49095AB
S1132A908095709561957F4F8F4F9F4F9923A9F033
S1132AA0F92F96E9BB279395F695879577956795C2
S1132AB0B795F111F8CFFAF4BB0F11F460FF1BC006
S1132AC06F5F7F4F8F4F9F4F16C0882311F096E999
S1132AD011C0772321F09EE8872F762F05C0662347
S1132AE071F096E8862F70E060E02AF09A95660F00
S1132AF0771F881FDAF7880F9695879597F90895B9
S1132B00990F0008550FAA0BE0E8FEEF16161706FA
S1132B10E807F907C0F012161306E407F50798F062
S1132B20621B730B840B950B39F40A2661F0232B7B
S1132B30242B252B21F408950A2609F4A140A695F7
S1132B408FEF811D811D089597F99F6780E870E0DC
S1132B5060E008959FEF80EC089500240A9416160F
S1132B60170618060906089500240A941216130677
S1132B70140605060895092E0394000C11F4882305
S1132B8052F0BB0F40F4BF2B11F460FF04C06F5F21
S1132B907F4F8F4F9F4F089557FD9058440F551FF7
S1132BA059F05F3F71F04795880F97FB991F61F0CB
S1132BB09F3F79F087950895121613061406551F42
S1132BC0F2CF4695F1DF08C0161617061806991FAE
S1132BD0F1CF86957105610508940895E894BB27A3
S1132BE066277727CB0197F908958ADF08F48FEFDA
S1132BF008950BD0C0CFB1DF28F0B6DF18F09523CD
S1132C0009F0A2CFA7CF1124EACFC6DFA0F3959F86
S1132C10D1F3950F50E0551F629FF001729FBB27BF
S1132C20F00DB11D639FAA27F00DB11DAA1F649F6B
S1132C306627B00DA11D661F829F2227B00DA11D1E
S1132C40621F739FB00DA11D621F839FA00D611DA4
S1132C50221F749F3327A00D611D231F849F600DC5
S1132C60211D822F762F6A2F11249F5750408AF0FE
S1132C70E1F088234AF0EE0FFF1FBB1F661F771F8A
S1132C80881F91505040A9F79E3F510570F05CCFCA
S1132C90A6CF5F3FECF3983EDCF386957795679576
S1132CA0B795F795E7959F5FC1F7FE2B880F911DA8
S1132CB09695879597F90895AA1BBB1B51E107C008
S1132CC0AA1FBB1FA617B70710F0A61BB70B881FB8
S1132CD0991F5A95A9F780959095BC01CD01089547
S1132CE0A1E21A2EAA1BBB1BFD010DC0AA1FBB1F0C
S1132CF0EE1FFF1FA217B307E407F50720F0A21B7E
S1132D00B30BE40BF50B661F771F881F991F1A94EA
S1132D1069F760957095809590959B01AC01BD0114
S1132D20CF010895EE0FFF1F881F8BBF0790F69108
S1132D30E02D19940F931F93CF93DF938230910565
S1132D4010F482E090E0E0915403F091550320E008
S1132D5030E0A0E0B0E0309719F140815181028168
S1132D60138148175907C8F08417950769F4109719
S1132D7031F012960C93129713961C9327C000936C
S1132D8054031093550322C02115310519F042173D
S1132D90530718F49A01BD01EF01DF01F801DBCFFD
S1132DA021153105F9F0281B390B2430310580F445
S1132DB08A819B816115710521F0FB0193838283D4
S1132DC004C09093550380935403FE01329644C08B
S1132DD0FE01E20FF31F819391932250310939834D
S1132DE028833AC02091520330915303232B41F49A
S1132DF02091020230910302309353032093520333
S1132E0020910002309101022115310541F42DB7C2
S1132E103EB74091040250910502241B350BE0910A
S1132E205203F0915303E217F307A0F42E1B3F0B58
S1132E302817390778F0AC014E5F5F4F2417350728
S1132E4048F04E0F5F1F50935303409352038193F6
S1132E50919302C0E0E0F0E0CF01DF91CF911F91A8
S1132E600F910895CF93DF93009709F481C0FC017B
S1132E70329713821282A0915403B0915503109794
S1132E8081F420813181820F931F2091520330916C
S1132E9053032817390751F5F0935303E093520372
S1132EA067C0ED0120E030E0CE17DF0740F44A812F
S1132EB05B819E0141155105F1F0EA01F5CFD38301
S1132EC0C28340815181840F951FC817D90759F4D3
S1132ED088819981840F951F0296918380838A81CA
S1132EE09B81938382832115310529F4F093550343
S1132EF0E09354033DC0E901FB83EA83499159916E
S1132F00C40FD51FEC17FD0761F480819181840FF4
S1132F10951F0296E90199838883828193819B831B
S1132F208A83E0E0F0E012968D919C9113970097CC
S1132F3019F0FD01DC01F7CF8D919C9111979D0152
S1132F402E5F3F4F820F931F209152033091530302
S1132F502817390769F4309729F410925503109211
S1132F60540302C013821282B0935303A0935203FA
S1132F70DF91CF910895FB01DC0102C001900D9215
S1132F8041505040D8F70895FB01DC018D91019028
S1112F9080190110D9F3990B0895F894FFCF1E
S1132F9E000056032000FFFFFF00FF00FF000000AB
S1132FAE00FFFFFF0000FFFFFF00FFFF1493060268
S1132FBE09020C020F021202150218021B0204006F
S1132FCE0000000000000000010000080388130048
S1132FDE00A0400000000000000000004176657271
S1132FEE61676520566F6C756D65205461736B0057
S1132FFE4E6F726D616C4661646500436F6C6F72E7
S113300E4661646500427265617468654661646513
S113301E006F66660049444C4500706F7765720018
S113302E4576656E7473207461736B004C56434819
S10D303E5247004155535953000056
S9030000FC
